:100000000C9436030C9453030C9453030C94530335
:100010000C9455030C9453030C9495030C945303C4
:100020000C9453030C9453030C9453030C94A603A5
:100030000C9453030C9453030C9453030C945303E8
:100040000C9453030C9453030C9453030C945303D8
:100050000C94730B0C94A10B0C9453030C9453034A
:100060000C94F3030C9453030C9453030C94530318
:100070000C94320C0C94600C0C9453031209270955
:100080003C09510966097B099009A5090315A313C9
:10009000F0134C14A1140B13AB15D6156E616E0042
:1000A000696E660000407A10F35A00A0724E18097B
:1000B0000010A5D4E80000E87648170000E40B54CF
:1000C000020000CA9A3B000000E1F505000080969E
:1000D0009800000040420F000000A08601000000D0
:1000E000102700000000E80300000000640000008A
:1000F00000000A00000000000100000000002C7653
:10010000D888DC674F0823DFC1DFAE59E1B1B7966D
:10011000E5E3E453C63AE651997696E8E6C28426CA
:10012000EB898C9B62ED407C6FFCEFBC9C9F40F2A6
:10013000BAA56FA5F490055A2AF75C936B6CF96722
:100140006DC11BFCE0E40D47FEF520E6B500D0EDE7
:10015000902E0300943577050080841E080000204F
:100160004E0A000000C80C333333330F986E1283ED
:100170001141EF8D2114893BE65516CFFEE6DB18C1
:10018000D1844B381BF77C1D901DA4BBE424203286
:1001900084725E228100C9F124ECA1E53D274C6FF9
:1001A0007720626174746572792073687574646F06
:1001B000776E20726571756573740050656E677532
:1001C000696E50692076322E300A004552524F52E5
:1001D0003A20556E6B6E6F776E204F70436F64657B
:1001E0000A004552524F523A20556E6B6E6F776E31
:1001F000204F70436F64650A004552524F523A20B7
:10020000496E636F727265637420547970650A0079
:100210004552524F523A20556E6B6E6F776E204F9B
:1002200070436F64650A004552524F523A4F4C4535
:10023000443A496E636F72726563742054797065D5
:100240000A004552524F523A4F4C45443A496E6368
:100250006F727265637420547970650A004552525A
:100260004F523A4F4C45443A496E636F7272656320
:100270007420547970650A004552524F523A4F4CDF
:1002800045443A496E636F727265637420547970A5
:10029000650A004552524F523A4F4C45443A496E16
:1002A000636F727265637420547970650A004552F9
:1002B000524F523A4F4C45443A496E636F727265E1
:1002C000637420547970650A004552524F523A4F78
:1002D0004C45443A496E636F727265637420547979
:1002E00070650A004552524F523A4F4C45443A49C4
:1002F0006E636F727265637420547970650A00458D
:1003000052524F523A20556E6B6E6F776E204F707F
:10031000436F64650A004552524F523A20496E635A
:100320006F727265637420547970650A0045525289
:100330004F523A20496E636F72726563742054792C
:1003400070650A004552524F523A20496E636F72EF
:100350007265637420547970650A004552524F5299
:100360003A20556E6B6E6F776E204F70436F6465E9
:100370000A004552524F523A20496E636F727265BD
:10038000637420547970650A004552524F523A20E6
:10039000496E636F727265637420547970650A00E8
:1003A0004552524F523A20496E636F7272656374C0
:1003B00020547970650A004552524F523A20496ED6
:1003C000636F727265637420547970650A004552D8
:1003D000524F523A20556E6B6E6F776E204F7043BE
:1003E0006F64650A004552524F523A20496E636F5E
:1003F000727265637420547970650A004552524FD9
:10040000523A20496E636F7272656374205479703A
:10041000650A004552524F523A20496E636F72721C
:1004200065637420547970650A004552524F523A00
:1004300020496E636F727265637420547970650A27
:10044000004552524F523A20496E636F7272656393
:100450007420547970650A004552524F523A20492F
:100460006E636F727265637420547970650A00451B
:1004700052524F523A20496E636F72726563742014
:10048000547970650A004552524F523A20496E63C2
:100490006F727265637420547970650A0045525218
:1004A0004F523A20556E6B6E6F776E2041646472C6
:1004B0006573730A004552524F523A20435243200B
:1004C0004661696C65640A004552524F523A2044B5
:1004D0006174616772616D20427566666572204F56
:1004E000766572666C6F770A004552524F523A2019
:1004F0005541525420427566666572204F7665728A
:10050000666C6F770A004552524F523A205541525D
:100510005420427566666572204F76657272756EFC
:100520000A004552524F523A2042616420554152CE
:1005300054204672616D650A00484154204E4F5464
:100540002050524553454E54206F72206E6F7420D8
:10055000535550504F525445440A00484154204985
:10056000442032203A20494D5520616E64204F4C82
:1005700045440A004841542049442031203A204C47
:1005800045447320616E64204F4C45440A0020208E
:100590006469723A2020300A0020206469723A208F
:1005A00020310A0020206469723A202D310A00446B
:1005B0006576696365207475726E6564206F6E0A76
:1005C00000446576696365205265736574206672C0
:1005D0006F6D204A54414720666C61670A0044658C
:1005E000766963652052657365742066726F6D204D
:1005F0005761746368646F672054696D656F7574C3
:100600000A004465766963652052657365742066E7
:10061000726F6D2042726F776E204F757420446543
:10062000746563746F720A0044657669636520526D
:10063000657365742066726F6D2045787465726E9F
:10064000616C2052657365740A0044657669636560
:100650002052657365742066726F6D20506F7765E8
:1006600072204F6E2052657365740A0011241FBEFC
:10067000CFEFD0E1DEBFCDBF18E0A0E0B1E0ECEA03
:10068000F1E402C005900D92AE30B107D9F72AE02F
:10069000AEE0B8E001C01D92AD32B207E1F70E94B2
:1006A0006B190C94D4200C9400001F920F920FB67B
:1006B0000F9211242F933F934F935F936F937F93E8
:1006C0008F939F93AF93BF93CF93EF93FF93C0B15B
:1006D000C1FB442740F96C2F617088E299E00E94C9
:1006E0001E10C3FB442740F9C2FB662760F988EF60
:1006F00099E00E941E10E3EFF9E081E0808384E638
:1007000090E094838383FF91EF91CF91BF91AF915C
:100710009F918F917F916F915F914F913F912F9119
:100720000F900FBE0F901F9018951F920F920FB64B
:100730000F9211248F93379903C081E0809314089E
:100740008F910F900FBE0F901F9018951F920F92D0
:100750000FB60F9211248F939F938091120890915E
:1007600013080196909313088093120880912B0A26
:1007700090912C0A892B51F080912B0A90912C0A90
:10078000019790932C0A80932B0A02C01092280A9A
:100790008091F6099091F709892B51F08091F60923
:1007A0009091F70901979093F7098093F60902C099
:1007B0001092F30980917C0990917D09892B51F069
:1007C00080917C0990917D09019790937D09809398
:1007D0007C0902C0109279099F918F910F900FBEF2
:1007E0000F901F9018951F920F920FB60F92112421
:1007F0008F9380915A09823058F080915A09815024
:1008000080935A0980917A00806480937A0008C0AE
:1008100080915A09813021F480935B0910925A0922
:1008200080917709823058F08091770981508093C8
:10083000770980917A00806480937A0008C0809163
:100840007709813021F480937809109277098F918C
:100850000F900FBE0F901F901895CF93E8E2F9E02C
:10086000158660E073E2768B658B108E178A40E008
:1008700051E0528F418F23E030E032A321A38FEF6C
:100880009FEFAFEFBFE383A394A3A5A3B6A3148206
:10089000E8EFF9E0C1E0C587768B658B108E178A8B
:1008A000528F418F32A321A383A394A3A5A3B6A300
:1008B0001482E0E5F9E0128682EE95E2A0E8B1E468
:1008C00086839783A087B187EDE6F9E0128680E002
:1008D00090E4AEE4B0E486839783A087B187E0E23A
:1008E000FAE080E090E0A0EDB0E480839183A28301
:1008F000B3831582148288E893E197838683EEE9B7
:10090000F9E08FEF80838183128213821482E3EAFD
:10091000F9E01082128211821482138216821582EB
:1009200010861782128611861486138616861586FF
:10093000108A1786CF91089585E190E80E94CB0B2D
:1009400084B1886184B984B1836084B984B5836AD1
:1009500084BD85B5816085BD81B1807F81B982B15B
:100960008F6082B98FE080936B00E8E6F0E08081D1
:100970008160808387B18C6287B98AB1806E8AB9C1
:10098000E0E8F0E08081836C8083E1E8F0E0808142
:1009900081608083E0EBF0E08081836F8083E1EB16
:1009A000F0E0808181608083E0E7F0E08081816019
:1009B000808380EC80937E0086E480937C008EE8C8
:1009C00080937A000E94F10C789408950E94E40BC1
:1009D00090FD19C094FF03C082E295E009C093FF27
:1009E00003C086E095E004C091FF0EC089EE94E05C
:1009F0000E94230C81E08093790988EE93E0909324
:100A00007D0980937C0980E00895EF920F931F93F6
:100A1000CF93DF93EC018E2D69834A83833659F09F
:100A200028F4833441F0893449F01FC0863651F0F0
:100A3000893621F01AC00B8361E018C01B830C8338
:100A400062E014C0602F712F822F932F0E94BD0D82
:100A5000DC011496FE013396CE0107962E91219368
:100A6000E817F907D9F764E001C060E084E0860F79
:100A70008883062F10E00D5F1F4F0C0F1D1F6D5F49
:100A8000CE010E94C80DF8018083DF91CF911F91A4
:100A90000F91EF900895CF92DF92EF92FF920F9314
:100AA0001F93CF93DF9300D000D0CDB7DEB76C019A
:100AB0007B018A01FC019281993009F464C100F53F
:100AC000943009F4C8C048F4923009F48BC008F09F
:100AD000A9C0913009F454C017C2963009F41CC162
:100AE00008F4E5C0973009F43BC1983009F00CC216
:100AF000F894FA01138212827894148613860DC238
:100B0000953809F494C108F5923809F44EC1B0F44F
:100B1000913809F0F9C1FA018185928590932109F4
:100B20008093200900912009109121092091220928
:100B30003091230949E6E42E41E0DBC1933809F402
:100B400047C1943809F454C1DFC1973809F4ADC1E5
:100B500008F48CC1983809F4B8C1993809F0D4C1A7
:100B6000FA0187A1809320090091200910912109A1
:100B7000209122093091230993E6E92E49E0B9C179
:100B8000F6018081853039F5838190E0982F8827A0
:100B90002481822B9C0197FF04C022273327281B26
:100BA000390BF801318B208B1816190614F481E0EB
:100BB00004C0892B21F08FEFF801868702C0F8016D
:100BC000168681E08093790988EE93E090937D0901
:100BD00080937C09A2C186E894E00E94230C61E026
:100BE00075E098C1F6018081853039F5F894FA01F5
:100BF00013821282789414861386F601838190E022
:100C0000982F88272481822BF801938B828B1816CA
:100C1000190614F481E003C0892B69F08FEFF80105
:100C200086877BC1F6018081843071F48381181638
:100C30008CF38111F3CFF801AFC08FE694E00E94EE
:100C4000230C6EE175E066C188E594E00E94230CF8
:100C50006CE375E05FC1F6018081873009F5D6014C
:100C60001396CE010196FC0124E0280F3D913193AB
:100C70002E13FCCF0E94AA0D20E030E040E053E4A8
:100C80000E94B91E0E94D11DF801768B658B6F5FA3
:100C90007F4F8FEF9FE70E94A61C72A361A33DC107
:100CA00081E494E00E94230C69E575E033C1F6010C
:100CB0008081873051F5D6011396CE010196FC0153
:100CC00024E0280F3D9131932E13FCCF0E94AA0DF2
:100CD00020E030E040E053E40E94B91E0E94D11DA4
:100CE000F801708F678B6F5F7F4F9B01770F440B0D
:100CF000550B6FEF7FEF8FEF9FE30E94BA1CF80157
:100D000023A334A345A356A308C18AE294E00E941A
:100D1000230C64E775E0FEC0F60180818730C9F4DA
:100D2000D6011396CE010196FC0124E0280F3D91D7
:100D300031932E13FCCF0E94AA0D20E030E040E05A
:100D400053E40E94B91E0E94D11DF801728F618F79
:100D5000E4C083E194E00E94230C6FE875E0DAC000
:100D6000F6018081843041F48381833008F081E092
:100D7000F8018483F8010EC08CEF93E00E94230CED
:100D80006AEA75E0C7C0F6018081843039F4838156
:100D9000FA0187A3148613861686BFC085EE93E0FA
:100DA0000E94230C67EC75E0B5C0FA018385948539
:100DB0009093210980932009009120091091210925
:100DC000209122093091230999E6E92E42E091C051
:100DD000FA0186858093200900912009109121094C
:100DE000209122093091230983E6E82E43E081C057
:100DF000FA016589768977FF02C061587F4F660FD7
:100E0000672F661F770B072E000C880B990B0E942B
:100E1000091E609320097093210980932209909301
:100E200023098B019C01B6E6EB2E44E062C0FA0177
:100E30006789708D77FF02C061587F4F660F672FFB
:100E4000661F770B072E000C880B990B0E94091E5A
:100E500060932009709321098093220990932309BC
:100E60008B019C01F6E6EF2E45E043C0FA01618D4F
:100E7000728D77FF02C061587F4F660F672F661F24
:100E8000770B072E000C880B990B0E94091E6093AC
:100E900020097093210980932209909323098B01E3
:100EA0009C0166E6E62E46E024C0FA018481809328
:100EB00020090091200910912109209122093091E7
:100EC000230943E6E42E47E014C0F894FA01828136
:100ED00093819093210980932009789400912009AF
:100EE00010912109209122093091230989E6E82EE9
:100EF00048E0F601618182E699E00E94050582E6FC
:100F000099E00E94150E09C08EEC93E00E94230C1C
:100F100065EE75E0C7010E94C0120F900F900F9010
:100F20000F90DF91CF911F910F91FF90EF90DF9085
:100F3000CF900895CF92DF92EF920F931F93CF93AC
:100F4000DF936C01EA01FC018281843009F45AC00C
:100F500038F4823009F446C0C0F5813061F193C0A5
:100F6000823809F471C090F4813809F08CC08A810C
:100F700080932009009120091091210920912209D4
:100F80003091230953E6E52E41E06CC0833809F423
:100F90004CC0843809F077C08D818093200900917E
:100FA000200910912109209122093091230983E61B
:100FB000E82E44E057C0F6019081943019F49381F3
:100FC0009A8327C087EB93E060C0F601808184306C
:100FD00031F48381803108F08FE08B8319C080EA7F
:100FE00093E053C0F6018081843041F483818031E5
:100FF00008F08FE08C8381E0898304C089E893E066
:101000000E94230CF6018081843061F483818D83FA
:1010100081E08983DF91CF911F910F91EF90DF9055
:10102000CF90089582E793E030C08B8180932009B0
:101030000091200910912109209122093091230962
:1010400043E6E42E43E00EC08C818093200900919A
:10105000200910912109209122093091230993E65A
:10106000E92E42E0F601618182E699E00E940505E1
:1010700082E699E0DF91CF911F910F91EF90DF9081
:10108000CF900C94150E8BE593E0DF91CF911F91DB
:101090000F91EF90DF90CF900C94230CEF920F9371
:1010A0001F93CF93DF93FC019281933009F44FC0DB
:1010B000DA01EB01943028F49130D9F0923031F11B
:1010C00089C0923809F455C0933809F462C0913848
:1010D00009F080C08C918093200900912009109123
:1010E0002109209122093091230943E6E42E41E0B1
:1010F00063C08081843039F48381181614F49C9382
:1011000077C01C9275C084E493E01AC0808184305B
:10111000A9F4838185361CF084E690E005C018169A
:1011200044F4082E000C990B12969C938E93119701
:101130005FC012961C921E9211975AC08DE293E0E6
:10114000DF91CF911F910F91EF900C94230C808130
:10115000853061F4238130E0322F22278481B90168
:10116000682BCB01FA019483838342C086E193E02C
:10117000E7CF11968C91809320090091200910915E
:101180002109209122093091230993E6E92E42E0BA
:1011900013C013968D919C9114979093210980937D
:1011A00020090091200910912109209122093091F4
:1011B000230989E6E82E43E0618182E699E00E94F6
:1011C000050582E699E0DF91CF911F910F91EF9095
:1011D0000C94150E8FEF92E00E94230C63ED76E0E5
:1011E000CE01DF91CF911F910F91EF900C94C0121F
:1011F000DF91CF911F910F91EF900895CF93DF93DF
:10120000DC01EB011296EC9112974E2F50E0FA019F
:101210003197E830F10508F0ADC0E25CFF4F8C91EA
:101220000C94D91C853061F413968C91139790E03F
:10123000982F882714962C91822B9A838983A5C096
:1012400084EE92E00E94230C6AEF75E099C085302D
:1012500061F413968C91139790E0982F8827149639
:101260002C91822B9C838B8390C089EC92E00E940E
:10127000230C65E176E084C0853061F413968C918F
:10128000139790E0982F882714962C91822B9E8399
:101290008D837BC08EEA92E00E94230C60E376E0AF
:1012A0006FC0853061F413968C91139790E0982F5E
:1012B000882714962C91822B98878F8366C083E9A8
:1012C00092E00E94230C6BE476E05AC0853061F412
:1012D00013968C91139790E0982F882714962C9151
:1012E000822B9A87898751C088E792E00E94230C5D
:1012F00066E676E045C0853061F413968C911397CD
:1013000090E0982F882714962C91822B9C878B87AE
:101310003CC08DE592E00E94230C61E876E030C08D
:10132000853061F413968C91139790E0982F88275D
:1013300014962C91822B9E878D8727C082E492E0A1
:101340000E94230C6CE976E01BC0853061F4139693
:101350008C91139790E0982F882714962C91822BCC
:10136000988B8F8712C087E292E00E94230C67EB74
:1013700076E006C080E192E00E94230C62ED76E008
:10138000CE01DF91CF910C94C012DF91CF910895DF
:10139000EF920F931F93CF93DF9300D000D0CDB780
:1013A000DEB7FC018A0182818138C9F118F48130ED
:1013B000D1F064C0823809F445C0833809F05EC0BA
:1013C000DA0112960D911D912D913C911597009384
:1013D000200910932109209322093093230986E6DE
:1013E000E82E43E041C080818730A1F43396CE01DE
:1013F0000196DC0124E0280F31913D932A13FCCFA4
:101400000E94AA0DD80116966D937D938D939C939F
:10141000199741C089EF91E00E94230C3CC0DA018A
:1014200016960D911D912D913C91199700932009CD
:1014300010932109209322093093230946E6E42ED4
:1014400041E012C0DA018D919C9190932109809323
:101450002009009120091091210920912209309141
:10146000230999E6E92E42E0618182E699E00E9433
:10147000050582E699E00E94150E0DC082EE91E00E
:101480000E94230C81E08093790988EE93E0909389
:101490007D0980937C090F900F900F900F90DF9142
:1014A000CF911F910F91EF900895FC0182818E3EA4
:1014B00031F18F3FE9F510922B0910922A09109211
:1014C0003B0910923A09109239091092380910928A
:1014D000FB091092FA0910920B0A10920A0A109254
:1014E000090A1092080A10925D091092280A1092B7
:1014F000F3091092790987E08093A3090895109267
:101500002B0910922A0910923B0910923A09109265
:101510003909109238091092FB091092FA091092B9
:101520000B0A10920A0A1092090A1092080A0895EA
:101530008BEC91E00E94230C81E08093790988EE86
:1015400093E090937D0980937C090895EF92FF9238
:101550000F931F93CF93DF93EC0181E08093280AD0
:1015600088EE93E090932C0A80932B0A8FE891E009
:101570000197F1F700C000000E94E604182FFE0159
:1015800081937F0101E0011790F48FE891E00197CA
:10159000F1F700C000000E94E604F70181937F018B
:1015A0000A3019F488EC94E015C00F5FECCFE12FFE
:1015B000F0E03197EC0FFD1F008110826FEF610F9B
:1015C000CE010E94C80D988191509883801729F010
:1015D00085EB94E00E94230C76C089818D3009F45C
:1015E00043C090F4853099F130F4843009F061C043
:1015F00048E259E02EC0873009F446C08C3009F02B
:1016000058C048E25AE032C0883109F442C090F430
:101610008E30B9F1803109F04CC04CE559E063EAF5
:1016200079E0CE01DF91CF911F910F91FF90EF9064
:101630000C949A07893181F18F3FD9F5CE01DF9162
:10164000CF911F910F91FF90EF900C94550A48EFA6
:1016500059E063EA79E0CE01DF91CF911F910F91BC
:10166000FF90EF900C944B0543EF59E063EA79E06B
:10167000CE01DF91CF911F910F91FF90EF900C94CD
:101680004E0849E759E0F2CF63EA79E0CE010E94C3
:10169000FE0840E559E002C04DE659E063EA79E012
:1016A000CE01DF91CF911F910F91FF90EF900C949D
:1016B000C8098DE994E00E94230C66EE76E083EA87
:1016C00099E00E94C01281E08093790988EE93E04E
:1016D00090937D0980937C09DF91CF911F910F91A9
:1016E000FF90EF9008951F920F920FB60F92112462
:1016F0002F938F939F93EF93FF938091C0009091CE
:10170000C6008C71E0919D08EF5FEF7320919C08FB
:10171000E21739F0E0939D08F0E0E056F74F908330
:1017200001C082E090919B08892B80939B08FF91D8
:10173000EF919F918F912F910F900FBE0F901F905F
:1017400018951F920F920FB60F9211248F939F93AB
:10175000EF93FF9390919F0880919E08981769F0EE
:10176000E0919E08EF5FEF73E0939E08F0E0E05297
:10177000F74F80818093C60005C08091C1008F7DA6
:101780008093C100FF91EF919F918F910F900FBEB9
:101790000F901F90189510929F0810929E0810921B
:1017A0009D0810929C0897FF03C022E02093C00080
:1017B00090789093C5008093C40088E98093C1001D
:1017C00086E08093C200089590919D0880919C08C6
:1017D0009817A9F090919C089F5F9F73E92FF0E004
:1017E000E056F74F208180919B0890939C081092BF
:1017F0009B0890E0982F8827820F911D089580E024
:1018000091E0089590919F089F5F9F7320919E089B
:101810009217E1F3E92FF0E0E052F74F80839093C5
:101820009F088091C10080628093C1000895CF938A
:10183000DF93EC018991882319F00E94020CFACF02
:10184000DF91CF910895CF93DF93FC018491EF0155
:101850002196882321F00E94020CFE01F7CFDF9130
:10186000CF9108951F920F920FB60F9211242F93CC
:101870008F939F93EF93FF938091C8009091CE0038
:101880008C71E0911808EF5FEF7320911708E21751
:1018900039F0E0931808F0E0E55EF74F908301C05F
:1018A00082E090911608892B80931608FF91EF91A2
:1018B0009F918F912F910F900FBE0F901F901895B1
:1018C0001F920F920FB60F9211248F939F93EF9355
:1018D000FF9390911A0880911908981769F0E09188
:1018E0001908EF5FEF73E0931908F0E0E55AF74F3E
:1018F00080818093CE0005C08091C9008F7D809348
:10190000C900FF91EF919F918F910F900FBE0F90A3
:101910001F90189510921A08109219081092180822
:101920001092170897FF03C022E02093C800907818
:101930009093CD008093CC0088E98093C90086E025
:101940008093CA00089590911808809117089817FD
:10195000A9F0909117089F5F9F73E92FF0E0E55E73
:10196000F74F20818091160890931708109216085F
:1019700090E0982F8827820F911D089580E091E0D4
:10198000089590911A089F5F9F73209119089217EC
:10199000E1F3E92FF0E0E55AF74F808390931A08BE
:1019A0008091C90080628093C9000895CF93DF932E
:1019B000EC018991882319F00E94C10CFACFDF91C4
:1019C000CF910895CF93DF93FC018491EF0121968D
:1019D000882321F00E94C10CFE01F7CFDF91CF9147
:1019E00008951092B90081E18093B800089594EAB7
:1019F0009093BC009091BC0097FFFCCF9091B900F0
:101A0000987F983021F0903111F081E00895809313
:101A1000BB0084E88093BC008091BC0087FFFCCFB2
:101A20008091B900887F883111F0803471F780E0AF
:101A3000089594EA9093BC009091BC0097FFFCCF6E
:101A40009091B9008093BB0084E88093BC008091A2
:101A5000BC0087FFFCCF9091B900987F81E098315E
:101A600009F480E08195089524EA34E844E920935C
:101A7000BC009091BC0097FFFCCF9091B900987F7B
:101A8000983011F0903199F78093BB003093BC00EF
:101A90009091BC0097FFFCCF9091B900987F903255
:101AA00011F0983539F44093BC009091BC0094FD3E
:101AB000FCCFDDCF08950C94F70C84E98093BC0033
:101AC0008091BC0084FDFCCF08958093BB0084E826
:101AD0008093BC008091BC0087FFFCCF9091B9003F
:101AE000987F81E0983209F480E0089584EC809337
:101AF000BC008091BC0087FFFCCF8091BB000895A3
:101B000084E88093BC008091BC0087FFFCCF80916B
:101B1000BB00089584B714BE843091F038F481304E
:101B200061F0823099F488E296E012C0883059F072
:101B3000803161F481EC95E00BC08AE496E008C046
:101B400082E096E005C08EED95E002C08FEA95E058
:101B50000C94230CE8E2F9E0DC012D91CD012293F5
:101B6000B9E0E432FB07C1F76091240970912509BF
:101B70008091260990912709089560932409709314
:101B80002509809326099093270984E299E0089516
:101B9000382FFC0180E04EEA9E2F931B961770F4BD
:101BA0009191892798E0282F269580FF03C0822FE6
:101BB000842701C0822F9150B1F7EECF08950F9383
:101BC0001F93CF93DF93FC01EB01C801821B930BA2
:101BD000BA016C1B7D0B0E94921CEC1BFD0B6E9FCF
:101BE000C0016F9F900D7E9F900D1124820F931F57
:101BF000DF91CF911F910F910895FC018481958110
:101C0000892B91F46083611103C0918181E006C04A
:101C1000613031F48281813019F491818927818387
:101C200084EF91E09583848308950F931F93CF935E
:101C30008C0181E10E94020CC0E0F8018081C8178C
:101C400040F4F801EC0FF11D80810E94020CCF5F7F
:101C5000F4CFCF911F910F910895AF92BF92CF9281
:101C6000DF92FF920F931F93CF93DF9300D01F92C9
:101C7000CDB7DEB76C01862F2B8349836A830E9420
:101C8000340D4981842F0E94650D6A8181E0860FA1
:101C90000E945B0DF12C2B8130E0590181E0A81AE4
:101CA000B1084F2D50E04A155B054CF48601040F36
:101CB000151F0E94760DF8018083F394F2CFCA0CB1
:101CC000DB1C0E94800DF60180830F900F900F9017
:101CD000DF91CF911F910F91FF90DF90CF90BF9038
:101CE000AF900C945D0D1F93CF93DF931F92CDB7F0
:101CF000DEB7182F862F49830E94340D4981842F27
:101D00000E94650D812F0E94650D0E945D0D81E08E
:101D10000F90DF91CF911F910895CF92DF92FF92A4
:101D20000F931F93CF93DF9300D0CDB7DEB7F82E7C
:101D3000862F890149839A830E94340D4981842F1B
:101D40000E94650DCF2C9A81D92E0C0D1D1DC01639
:101D5000D10631F0F60181916F010E94650DF7CF38
:101D60000E945D0D81E00F900F90DF91CF911F9148
:101D70000F91FF90DF90CF9008958F3F19F48AB1B3
:101D80008F710CC04AB121E030E0B90102C0660F8A
:101D9000771F8A95E2F7CB01809584238AB908954D
:101DA0008F3F19F48AB1806E0BC04AB121E030E058
:101DB000B90102C0660F771F8A95E2F7CB01842B29
:101DC0008AB9089564E60E94861C911103C087E0D9
:101DD0000C94BD0E579A2CED929FC001112464E61D
:101DE00070E00E94A61C6093B300089564E60E9410
:101DF000861C911103C085E00C94BD0E559A28E70E
:101E0000929FC001112464E670E00E94A61C7093AA
:101E1000890060938800089564E60E94861C9111F1
:101E200003C086E00C94BD0E569A2CE8929FC00128
:101E3000112464E670E00E94A61C6093B40008952B
:101E4000CF93DF93EB01FA0165E070E00E94A61CDE
:101E5000AB018B859C8524893589821B930B978BDD
:101E6000868B2A813B81358B248B2485358537876A
:101E700026879B01281B390B358724878089918908
:101E8000820F931F918B808B80819181289FB0015D
:101E9000299F700D389F700D1124718F608F828D76
:101EA000938D860F971F8536910514F084E690E098
:101EB000938F828F828D938D8C399F4F24F48CE980
:101EC0009FEF938F828F452B41F4138E128E1586D0
:101ED000148617861686118E108E828D938DDF9153
:101EE000CF910895EF92FF920F931F93CF93DF93BB
:101EF000FB01038514859C01201B310B81A192A15C
:101F00008217930784F091958195910928173907D5
:101F10006CF085899689289FE001299FD00D389F14
:101F2000D00D112405C0CFEFDFE702C0C1E0D0E83B
:101F3000C901330FAA0BBB0B438D548D658D768D74
:101F40009A01AB01280F391F4A1F5B1F83A194A17F
:101F5000A5A1B6A182179307A407B5074CF4838FF8
:101F6000948FA58FB68F6FEF7FEF8FEF9FE31DC02C
:101F7000B095A095909581959F4FAF4FBF4F281773
:101F800039074A075B074CF4838F948FA58FB68F70
:101F900061E070E080E090EC08C0238F348F458FC3
:101FA000568FA789B08D0E94DF1C278D30A1201B82
:101FB000310BA18DB28D2A9F70012B9FF00C3A9F9F
:101FC000F00C112410A3078F8E01DD0F220B330BB1
:101FD000AB01BC01400F511F621F731FC701FF0CF3
:101FE000AA0BBB0B8A019B01080F191F2A1F3B1F5D
:101FF000C901B80120E830E040E050E00E94BA1C7E
:10200000213010E831071FEF4107510724F421E088
:1020100030E84FEF5FEFDA01C901811520E8920740
:10202000A105B10524F08FEF9FE7A0E0B0E0DF91BC
:10203000CF911F910F91FF90EF900895FC01848143
:10204000811126C08081861709F474C0868581308D
:1020500029F4228133812F5F3F4F06C08F3F41F427
:1020600022813381215031093383228387870EC037
:102070008785813021F482819381019605C08F3F4D
:1020800029F48281938101979383828360830895E9
:10209000813031F5A0819181AA0FA92B862F880F5D
:1020A000982F942B2585892F90E0B0E0AA0FBB1FB5
:1020B000AA0FBB1F8A0F9B1FDC01213019F4AF5FF1
:1020C000BC4F02C0AF5EBC4F2C9182819381820FC6
:1020D000911D27FD9A9593838283608341830895A0
:1020E000823031F546278081841721F18685813041
:1020F00029F4228133812F5F3F4F06C08F3F41F487
:1021000022813381215031093383228387870EC096
:102110008785813021F482819381019605C08F3FAC
:1021200029F4828193810197938382834083089568
:1021300081E084830895EF92FF920F931F93CF93D2
:10214000DF93CDB7DEB7A0970FB6F894DEBF0FBE12
:10215000CDBF7C01FC0186858F3F19F484EA95E0B0
:1021600007C0813019F489E995E002C08EE895E056
:102170000E94230CF701828193819F938F938FEFAD
:1021800096E09F938F938E010F5F1F4F1F930F93C6
:102190000E945320C8010E94170CF70184858F9379
:1021A00083858F938BE097E09F938F931F930F937B
:1021B0000E945320C8010E94170CF70181898F9358
:1021C00080898F9387E197E09F938F931F930F935D
:1021D0000E945320C8010E94170C0FB6F894DEBF6E
:1021E0000FBECDBFA0960FB6F894DEBF0FBECDBF19
:1021F000DF91CF911F910F91FF90EF900895E1E053
:10220000F1E0119283E0E130F807D9F7089583E314
:102210008093CD0180934D028093CD020895FF926B
:102220000F931F93CF93DF93CDB7DEB760970FB6B1
:10223000F894DEBF0FBECDBF40E068E781E20E94A8
:10224000730E40E068E780E00E94730E40E068E7AC
:102250008FE70E94730E40E068E782E20E94730EEF
:1022600040E068E780E00E94730E40E068E783E0AA
:102270000E94730E01E011E080E1F82EF801DE010A
:1022800011968F2D01900D928A95E1F720E130E0B3
:1022900040E468E7CE0101960E948D0E005F1F4F5B
:1022A00083E00130180751F760960FB6F894DEBF4F
:1022B0000FBECDBFDF91CF911F910F91FF90089579
:1022C00040E068E78EEA0E94730E40E068E785ED23
:1022D0000E94730E40E068E780E80E94730E40E0C1
:1022E00068E788EA0E94730E40E068E78FE10E9489
:1022F000730E40E068E783ED0E94730E40E068E7EC
:1023000080E00E94730E40E068E780E40E94730E54
:1023100040E068E78DE80E94730E40E068E784E1E2
:102320000E94730E40E068E780E20E94730E40E076
:1023300068E780E00E94730E40E068E781EA0E944F
:10234000730E40E068E788EC0E94730E40E068E797
:102350008AED0E94730E40E068E782E00E94730EEF
:1023600040E068E781E80E94730E40E068E78FE88C
:102370000E94730E40E068E789ED0E94730E40E012
:1023800068E781EF0E94730E40E068E78BED0E94E2
:10239000730E40E068E780E40E94730E40E068E757
:1023A00084EA0E94730E40E068E786EA0E94730E9A
:1023B00040E068E78FEA0E94730E0E940F112AE244
:1023C00030E58EEF90E02150304080409040D9F7CA
:1023D000000008950F931F93CF93DF9300D01F92B7
:1023E000CDB7DEB78C0119821A8282E40E94190DE2
:1023F0008F3F59F022E040E062E4CE0101960E9456
:102400002D0E89818F70F8018083F80120812130A1
:1024100079F0223029F58BE595E00E94230C898123
:10242000807FF8018183128281E0838384831CC0D2
:1024300084E795E02B830E94230C8981807FF8013B
:10244000818312822B812383248319821A8222E0C2
:1024500030E046E060E4CE0101960E948D0E04C09B
:1024600089E395E00E94230CF8018381813051F4C7
:1024700080916D00806880936D0080916800846019
:1024800080936800F8018481813011F40E9460110A
:102490001A8218E0198222E030E042E060E4CE01C6
:1024A00001960E948D0EFFE724E88EE1F150204056
:1024B0008040E1F700C00000115061F718E01A8277
:1024C00022E030E042E060E4CE0101960E948D0EF1
:1024D0009FE7E4E8FEE19150E040F040E1F700C002
:1024E0000000115061F70F900F900F90DF91CF9186
:1024F0001F910F91089590E8699FB0011124680F12
:10250000711D85E04802A001112480E090E0DC010B
:10251000A40FB51FFC01E60FF71FEF5FFE4FAF578B
:10252000BD4F2C91208301968530910581F7FB01E9
:10253000EF5FFE4F158208950F931F93CF93DF93A4
:10254000D62FC82FCC0F8C0FC82FCC0F8A01F801C3
:1025500041918F01442331F06D2F8C2F0E947B120B
:10256000CA5FF5CFDF91CF911F910F910895FC01C4
:102570009081953010F0108208959F5F90830895A8
:10258000FC0190E0DB018C91882369F0903448F4E1
:102590006F5F7F4F292F30E0DF01A20FB31F5196ED
:1025A0008C939F5FEFCF86E0808308953F924F9298
:1025B0005F926F927F928F929F92AF92BF92CF92D3
:1025C000DF92EF92FF920F931F93CF93DF93CDB7DC
:1025D000DEB77C014B015A0169012D963FAC2D9766
:1025E0002E967FAC2E972F966FAC2F9760965FAC90
:1025F000609761964FAC61970E94FF10D701EC91F4
:102600008E2F90E08830910508F0D6C2FC01EA5B7D
:10261000FF4F0C94D91C1F923F9283E297E09F9347
:102620008F930EE719E01F930F930E945320A80188
:1026300060E080E00E949C1245E357E060E080E0AB
:102640000E949C1289A18F9388A18F9381E497E0C7
:102650009F938F931F930F930E945320A80161E0D3
:1026600080E00E949C128FA58F938EA58F9387E4A4
:1026700097E09F938F931F930F930E945320A8017D
:1026800062E080E00E949C128BA58F938AA58F93B5
:102690008DE497E09F938F931F930F930E94532095
:1026A000A80163E080E00E949C128DAD8F938CADF9
:1026B0008F9374E4E72E77E0F72EFF92EF921F934B
:1026C0000F930E945320A80161E088E00E949C12B1
:1026D0002C968FAD2C978F932B968FAD2B978F9336
:1026E000FF92EF921F930F930E9453200FB6F8941E
:1026F000DEBF0FBECDBFA80162E088E00E949C1241
:1027000028968FAD28978F9327968FAD27978F9315
:10271000FF92EF921F930F930E945320A80163E052
:1027200088E00E949C124F925F926F927F9283E5A5
:1027300097E09F938F931F930F930E945320A801BC
:1027400063E08BE045C049E557E060E080E00E942F
:102750009C1241E657E061E080E00E949C1246E650
:1027600057E062E080E00E949C12D40115968C91A3
:1027700015978F9314968C9114978F9313968C9131
:1027800013978F9312968C918F938BE697E09F937C
:102790008F930EE719E01F930F930E945320A80117
:1027A00061E086E00E949C12F50185818F9384810F
:1027B0008F9383818F9382818F9384E797E09F9398
:1027C0008F931F930F930E945320A80162E084E02F
:1027D0000E949C120FB6F894DEBF0FBECDBFECC1B5
:1027E0004EE757E060E080E00E949C1245E857E029
:1027F00061E080E00E949C12D6011E968C918F3F72
:1028000019F44AE857E007C0813019F44EE857E060
:1028100002C042E957E061E088E00E949C12F801A2
:1028200086858F3F19F44AE857E007C0813019F4D4
:102830004EE857E002C042E957E061E080E10E94C3
:102840009C1246E957E062E080E00E949C12D601AB
:1028500051968C9151978F9350968C918F935BE901
:10286000C52E57E0D52EDF92CF926EE7E62E69E0B7
:10287000F62EFF92EF920E945320A70162E085E0BE
:102880000E949C12F80181898F9380898F93DF9237
:10289000CF92FF92EF92ADC04FE957E060E080E049
:1028A0000E949C1248EA57E061E080E00E949C127E
:1028B000D60116968C9116978F9315968C918F93BF
:1028C0003BE9A32E37E0B32EBF92AF924EE7E42E42
:1028D00049E0F42EFF92EF920E945320A70161E09D
:1028E00085E00E949C12F80186818F9385818F93E9
:1028F000BF92AF92FF92EF920E945320A70161E036
:102900008DE00E949C124EEA57E062E080E00E9457
:102910009C12D60118968C9118978F9317968C91CC
:102920008F93BF92AF92FF92EF920E945320A70124
:1029300062E085E00E949C12F80180858F93878178
:1029400053C044EB57E060E080E00E949C124DEBE6
:1029500057E061E080E00E949C12D60112968D91B2
:102960009C9113979F938F939BE9A92E97E0B92E83
:10297000BF92AF922EE7E22E29E0F22EFF92EF9265
:102980000E945320A70161E085E00E949C12F8019B
:10299000828193819F938F93BF92AF92FF92EF9228
:1029A0000E945320A70161E08DE00E949C1242EC3E
:1029B00057E062E080E00E949C12D6011C968C9148
:1029C0001C978F931B968C918F93BF92AF92FF921F
:1029D000EF920E945320A70162E085E00E949C12C2
:1029E000F80184858F9383858F93BF92AF92FF9276
:1029F000EF920E945320A70162E08DE00E949C129A
:102A00000E940711E7CE47EC57E060E080E00E94AB
:102A10009C1244ED57E061E080E00E949C12D701D7
:102A200012968C9112978F9311968C918F9387EEBB
:102A3000C82E87E0D82EDF92CF920EE719E01F93C1
:102A40000F930E945320A80161E086E00E949C122F
:102A5000F70184818F9383818F93DF92CF921F93AD
:102A60000F930E945320A80161E08AE00E949C120B
:102A7000D70116968C9116978F9315968C918F93FC
:102A8000DF92CF921F930F930E945320A80161E021
:102A90008EE00E949C12F70180858F9387818F932F
:102AA000DF92CF921F930F930E945320A80161E001
:102AB00082E10E949C124BEE57E062E080E00E94AF
:102AC0009C12D7011A968C911A978F9319968C9114
:102AD0008F93DF92CF921F930F930E945320A801F0
:102AE00062E086E00E949C12F70184858F938385C3
:102AF0008F93DF92CF921F930F930E9453200FB6B4
:102B0000F894DEBF0FBECDBFA80162E08AE00E944C
:102B10009C12D7011E968C911E978F931D968C91B7
:102B20008F93DF92CF921F930F930E945320A8019F
:102B300062E08EE00E949C12F70180898F93878566
:102B40008F93DF92CF921F930F930E945320A8017F
:102B500062E082E13DCE4EEF57E060E080E00E940F
:102B60009C12B7016F5E7F4F8EE799E00E940920AB
:102B70004EE759E061E080E00E949C12B7016A5D77
:102B80007F4F8EE799E00E9409204EE759E062E00E
:102B900080E00E949C12B701655C7F4F8EE799E050
:102BA0000E9409204EE759E063E003C044E058E08A
:102BB00060E080E00E949C12DF91CF911F910F9105
:102BC000FF90EF90DF90CF90BF90AF909F908F904D
:102BD0007F906F905F904F903F900C940F11A3E106
:102BE000B0E0E5EFF5E10C94E71C6C014B012A0124
:102BF000FC0117821682838181FF43C3AE014F5FC0
:102C00005F4F3A01F6019381F40193FD859193FFA3
:102C100081914F01882309F430C3853239F493FD43
:102C2000859193FF81914F01853239F4B60190E08F
:102C30000E941B2052012501E5CF10E0F12C20E07D
:102C40002032A0F48B3269F030F4803259F08332B4
:102C500069F420612CC08D3239F0803339F4216061
:102C600026C02260246023C0286021C027FD27C021
:102C700030ED380F3A3078F426FF06C0FAE01F9F97
:102C8000300D1124132F13C04AE0F49E300D11248F
:102C9000F32E20620CC08E3221F426FDEEC2206499
:102CA00006C08C3611F4206802C0883641F4F40165
:102CB00093FD859193FF81914F018111C1CF9BEBD2
:102CC000980F933018F42061805E06C09BE9980F3E
:102CD000933008F071C12F7E26FF16E02F73322E3D
:102CE000853619F42064322E08C0863621F4F22F7E
:102CF000F0683F2E02C01111115037FE07C01C337F
:102D000050F4EE24E394E10E27E00BC0183038F0C5
:102D100027E017E005C027E04CE3E42E02C0212F96
:102D2000E12C520144E0A40EB11CF20160817181DA
:102D3000828193810E2DA3010E94261F2C010981FF
:102D400000FF02C003FF07C031FC08C032FE09C00B
:102D500030E2232E07C02DE2222E04C09BE2292E52
:102D600001C0212C802F8C7019F0211068C2A8C2DC
:102D700037FE0FC0E40C04FF04C08A81813309F4DC
:102D8000EA941E1474F5F8E0FE1578F588E0E82E54
:102D90002CC036FC2AC0812F90E0841595059CF04C
:102DA0002CEF42162FEF520674F0432D4068342E5C
:102DB0000AC0E2E0F0E0EC0FFD1FE10FF11D8081A1
:102DC000803319F411501111F4CF37FE0EC0EE24E8
:102DD000E394E10E812F90E0481659062CF4141963
:102DE00004C0EE24E39401C010E037FE06C01414C2
:102DF000150434F4C201019605C085E090E002C0DC
:102E000081E090E021100196112331F0212F30E074
:102E10002F5F3F4F820F931F2F2D30E082179307B4
:102E200014F4F81A01C0F12C832D897049F4FF20A5
:102E300039F0B60180E290E00E941B20FA94F7CFAF
:102E4000222029F0B601822D90E00E941B2033FC45
:102E500009C0FF2039F0B60180E390E00E941B20FA
:102E6000FA94F7CF37FE5AC0942D852D57FE02C035
:102E700090E080E0292E382E20E030E0A2014E19AB
:102E800051095D874C87A201421953095F874E871C
:102E9000612F70E044275527461B570B598B488BF1
:102EA0005FEF2516350649F4B6018EE290E02A8BD5
:102EB0003B8B0E941B203B892A89421453046CF0EF
:102EC0004C855D854215530544F4EE85FF85E20F80
:102ED000F31FE60DF71D818101C080E351E0251A43
:102EE00031082F5F3F4F48895989241635064CF029
:102EF000B60190E02A8B3B8B0E941B202A893B89DC
:102F0000CFCF2414350439F49A81963318F49533CD
:102F100011F404FF81E3B60190E04BC08A81813354
:102F200009F00F7EB60190E00E941B20111105C030
:102F300034FC18C085E690E017C0B6018EE290E040
:102F40000E941B2082E0EE24E394E80EF301E80FD8
:102F5000F11D8081B60190E00E941B2011508E2D42
:102F600091F7E6CF85E490E0B6010E941B2057FC64
:102F700005C04114510439F404FF05C05194419433
:102F800051088DE201C08BE2B60190E00E941B2047
:102F900080E39AE0491651042CF08F5F5AE0451AFD
:102FA0005108F7CFB60190E00E941B20B601C20184
:102FB000C0960E941B2057C1833631F0833779F0C9
:102FC000833509F058C021C05201E2E0AE0EB11CB9
:102FD000F2018081898301E010E0230114C05201D5
:102FE000F2E0AF0EB11CF2014080518026FF03C019
:102FF000612F70E002C06FEF7FEFC2012A8B0E9449
:1030000010208C012A892F7715C05201F2E0AF0EF3
:10301000B11CF2014080518026FF03C0612F70E097
:1030200002C06FEF7FEFC2012A8B0E94FE1F8C014E
:103030002A892068322E23FD1AC08F2D90E00817B0
:103040001907A8F4B60180E290E00E941B20FA94D0
:10305000F4CFF20137FC859137FE81912F01B60143
:1030600090E00E941B20F110FA9401501109011503
:10307000110579F7F8C0843611F0893659F55201F7
:1030800027FF09C0F4E0AF0EB11CF201608171812D
:10309000828193810AC0F2E0AF0EB11CF20160811F
:1030A0007181072E000C880B990B2F76322E97FF1B
:1030B00009C090958095709561957F4F8F4F9F4F78
:1030C0002068322E2AE030E0A3010E947620E82E0C
:1030D000E6183FC0022F853721F40F7E2AE030E04A
:1030E0001DC0097F8F3691F018F4883559F0C5C09E
:1030F000803719F0883711F0C0C0006104FF09C0A3
:10310000046007C024FF08C0066006C028E030E065
:1031100005C020E130E002C020E132E0520107FFAB
:1031200009C0F4E0AF0EB11CF201608171818281AF
:10313000938108C0F2E0AF0EB11CF2016081718191
:1031400080E090E0A3010E947620E82EE6180F7739
:10315000302E36FE0BC0332D3E7FE11650F434FE88
:103160000AC032FC08C0332D3E7E05C00E2D332D23
:1031700003C00E2D01C0012F34FF0CC0FE01EE0D67
:10318000F11D8081803311F4397E08C032FF05C003
:103190000E5F04C0832F867809F00F5F33FD13C0E4
:1031A00030FF06C01E2D0F1518F41F0D101B0F2D1C
:1031B0000F1568F4B60180E290E03B8B0E941B2063
:1031C0000F5F3B89F5CF0F1510F4F01A01C0F12CF9
:1031D00034FF12C0B60180E390E03B8B0E941B20BD
:1031E0003B8932FF17C031FD03C088E790E002C081
:1031F00088E590E0B6010CC0832F867859F031FF46
:1032000002C08BE201C080E237FD8DE2B60190E0A2
:103210000E941B20E11638F4B60180E390E00E9482
:103220001B201150F7CFEA94F301EE0DF11D8081C0
:10323000B60190E00E941B20E110F5CF14C0F4E02D
:10324000FF1558F584E0F81A33FE1EC0211026C081
:1032500003FF2AC00CE910E0F32DF0713F2EF801B6
:103260008491811124C0FF2009F4E5CCB60180E2ED
:1032700090E00E941B20FA94F6CFF6018681978198
:1032800026C08FEF9FEF23C0B60180E290E00E943E
:103290001B20FA94F110F8CFD9CFF12CB601822D72
:1032A00090E00E941B20D4CF00EA10E0D5CF31106F
:1032B0008052B60190E00E941B200F5F1F4FCFCFBE
:1032C00023E02F1510F483E0BECFF12CC1CF63961D
:1032D000E2E10C94031DCF93DF93CDB7DEB7C75463
:1032E000D1090FB6F894DEBF0FBECDBF27961FAE33
:1032F000279728961FAE28970E942D040E949C04B1
:1033000021E02093790980E197E290937D098093F1
:103310007C092093280A90932C0A80932B0A8BEB2C
:1033200091E00E94230C0E948A0D8EE999E00E9490
:10333000EA1118B82FE784E89EE1215080409040C0
:10334000E1F700C000008CE288B92FE784E89EE135
:10335000215080409040E1F700C0000018B82FE7EE
:1033600084E89EE1215080409040E1F700C00000D9
:10337000429A2FE784E89EE1215080409040E1F797
:1033800000C00000439A2FE784E89EE1215080406E
:103390009040E1F700C00000459A2FE784E89EE1E5
:1033A000215080409040E1F700C0000086E080930B
:1033B0005A0980917A00806480937A0081E090E0DD
:1033C0009E8F8D8F18AE1FAA9A8389831C8E1B8EA9
:1033D000E12CF12C9AE0592E2CE1A22E82E699E004
:1033E0003AE0B32EB80E44244A9442E3842E912C42
:1033F00054E6652E712C0E94E604813169F482E660
:1034000099E00E94A60AE2E6F9E0DE01D996852D50
:1034100001900D928A95E1F78091A209813009F01F
:1034200057C028EEE21623E0F20609F04EC0809164
:1034300011088F93809110088F9380910F088F93BC
:1034400080910E088F93809100018F938DB79EB766
:103450004C970FB6F8949EBF0FBE8DBFADB7BEB7E9
:103460001196FE0131968A2D01900D928A95E1F711
:103470008DB79EB74C970FB6F8949EBF0FBE8DBF09
:10348000ADB7BEB71196FE017D968A2D01900D92C3
:103490008A95E1F7CE01C9966C018CE5E82E89E0AA
:1034A000F82E08EF19E028E239E04DE659E060E532
:1034B00079E083EA99E00E94D6120FB6F894DEBF55
:1034C0000FBECDBFE12CF12C03C09FEFE91AF90A22
:1034D000809115088A3F20F48F5F8093150807C0FC
:1034E00081E080933C0980930C0A10921508E2E673
:1034F000F9E01192BE12FDCF10922009109221091D
:10350000109222091092230980912A0990912B0987
:1035100090933409809333098091FA099091FB09C3
:103520009093040A8093030A80910001811119C0CD
:10353000809138099091390997FF03C09195819541
:1035400091090FEF10E020E030E044E650E060E049
:1035500070E00E94DF0D87BD8091080A9091090AF2
:1035600059C080913C09813009F040C06091120837
:103570007091130880E090E00E94071E25E93FEB60
:1035800046E557E30E94B91E60930E0870930F083A
:10359000809310089093110810921308109212084B
:1035A000109136092091380930913909AE01435EF6
:1035B0005F4F68E279E01203C001139F900D112460
:1035C0000E94200F1091060A2091080A3091090AE2
:1035D000AE014F5F5F4F68EF79E01203C001139FA8
:1035E000900D11240E94200F10923C098FA998ADD4
:1035F00097FF03C09195819591090FEF10E020E0AE
:1036000030E044E650E060E070E00E94DF0D87BDEE
:103610008B8D9C8D97FF03C09195819591090FEF3C
:1036200010E020E030E044E650E060E070E00E940E
:10363000DF0D88BD80913609813011F4289805C0CE
:103640008F3F11F4289A01C017BC8091060A81307F
:1036500011F4299805C08F3F11F4299A01C018BCB4
:103660008091280A181674F48091290A90912A0AE8
:10367000181619061CF40E94E20E07C087E00E948B
:10368000D00E03C087E00E94BD0E8091F30918168A
:1036900074F48091F4099091F509181619061CF438
:1036A0000E94F60E07C085E00E94D00E03C085E0A0
:1036B0000E94BD0E80917909181674F480917A09E0
:1036C00090917B09181619061CF40E940C0F07C074
:1036D00086E00E94D00E03C086E00E94BD0E80915D
:1036E0005B098823C9F180917A0086FD35C060911D
:1036F0007800709179007093510960935009072EFA
:10370000000C880B990B0E94091E209156093091DC
:10371000570940915809509159090E94B91E20E05B
:1037200030E04AE754E40E945F1D609352097093B1
:103730005309809354099093550910925B09809125
:103740007C00816080937C0086E080937709809183
:103750007A00806480937A0080917809882399F1B7
:1037600080917A0086FD2FC0609178007091790079
:1037700070936E0960936D09072E000C880B990BEE
:103780000E94091E209173093091740940917509B6
:10379000509176090E94B91E60936F097093700969
:1037A00080937109909372091092780980917C003E
:1037B0008E7F80937C0086E080935A0980917A0006
:1037C000806480937A002091200A3091210A4091F0
:1037D000220A5091230A60915209709153098091F5
:1037E0005409909155090E945A1D87FF2EC080915F
:1037F000240A9091250A2091260A3091270A8217DF
:10380000930730F401969093250A8093240A21C0EF
:10381000809164008866809364008FE125968FAF65
:1038200025978DE126968FAF269722E030E042E083
:1038300060915C09CE018C5B9F4F0E948D0E8EE9DA
:1038400091E00E94230C2D98FACF1092250A109235
:10385000240A8091A109813009F0CDCD109114087E
:10386000113009F0C8CD22E040E062E4CE018A5B6D
:103870009F4F0E942D0E27968FAD2797982F907FF0
:1038800090939F0984FF03C01093000102C010921F
:10389000000100E010E0DD24D39428968FAD289736
:1038A00090E0002E02C0959587950A94E2F780FD7E
:1038B00025C00230B1F00330D9F0013029F083EA9D
:1038C00099E00E94B7121AC0109236091092390975
:1038D000109238091092060A1092090A1092080AEA
:1038E0000DC040923609909239098092380906C07D
:1038F000D092060A7092090A6092080A0F5F1F4F61
:103900000430110551F61092140875CD991B79E019
:1039100004C0991F961708F0961B881F7A95C9F75F
:1039200080950895AA1BBB1B51E107C0AA1FBB1FAE
:10393000A617B70710F0A61BB70B881F991F5A953B
:10394000A9F780959095BC01CD01089597FB072EAE
:1039500016F4009407D077FD09D00E94921C07FC52
:1039600005D03EF4909581959F4F0895709561958F
:103970007F4F0895052E97FB1EF400940E94D11CE2
:1039800057FD07D00E941E1D07FC03D04EF40C9477
:10399000D11C50954095309521953F4F4F4F5F4F2B
:1039A000089590958095709561957F4F8F4F9F4FAB
:1039B0000895EE0FFF1F0590F491E02D0994B7FFD5
:1039C0000C94401D0E94401D821B930B08952F9262
:1039D0003F924F925F926F927F928F929F92AF929F
:1039E000BF92CF92DF92EF92FF920F931F93CF93EC
:1039F000DF93CDB7DEB7CA1BDB0B0FB6F894DEBF83
:103A00000FBECDBF09942A88398848885F846E84A8
:103A10007D848C849B84AA84B984C884DF80EE80F2
:103A2000FD800C811B81AA81B981CE0FD11D0FB6FB
:103A3000F894DEBF0FBECDBFED010895A1E21A2EAE
:103A4000AA1BBB1BFD010DC0AA1FBB1FEE1FFF1F42
:103A5000A217B307E407F50720F0A21BB30BE40B92
:103A6000F50B661F771F881F991F1A9469F76095D9
:103A70007095809590959B01AC01BD01CF01089593
:103A80000E944B1DA59F900DB49F900DA49F800D8B
:103A9000911D11240895A29FB001B39FC001A39F5F
:103AA000700D811D1124911DB29F700D811D112477
:103AB000911D08950E94441E08F481E008950E941B
:103AC000731D0C947F1E0E94781E58F00E94711E78
:103AD00040F029F45F3F29F00C94681E51110C94BA
:103AE000B31E0C946E1E0E94901E68F39923B1F3CE
:103AF000552391F3951B550BBB27AA276217730714
:103B0000840738F09F5F5F4F220F331F441FAA1FA7
:103B1000A9F335D00E2E3AF0E0E832D09150504063
:103B2000E695001CCAF72BD0FE2F29D0660F771F11
:103B3000881FBB1F261737074807AB07B0E809F0F7
:103B4000BB0B802DBF01FF2793585F4F3AF09E3F7C
:103B5000510578F00C94681E0C94B31E5F3FE4F39B
:103B6000983ED4F3869577956795B795F7959F5FBF
:103B7000C9F7880F911D9695879597F90895E1E00B
:103B8000660F771F881FBB1F621773078407BA076A
:103B900020F0621B730B840BBA0BEE1F88F7E095C5
:103BA00008950E94D81D6894B1110C94B31E089515
:103BB0000E94981E88F09F5798F0B92F9927B75107
:103BC000B0F0E1F0660F771F881F991F1AF0BA95C1
:103BD000C9F714C0B13091F00E94B21EB1E008954F
:103BE0000C94B21E672F782F8827B85F39F0B93F41
:103BF000CCF3869577956795B395D9F73EF4909574
:103C00008095709561957F4F8F4F9F4F0895E894F1
:103C100009C097FB3EF490958095709561957F4F14
:103C20008F4F9F4F9923A9F0F92F96E9BB279395C2
:103C3000F695879577956795B795F111F8CFFAF4D2
:103C4000BB0F11F460FF1BC06F5F7F4F8F4F9F4F03
:103C500016C0882311F096E911C0772321F09EE861
:103C6000872F762F05C0662371F096E8862F70E0C7
:103C700060E02AF09A95660F771F881FDAF7880FA1
:103C80009695879597F90895990F0008550FAA0BF7
:103C9000E0E8FEEF16161706E807F907C0F012165F
:103CA0001306E407F50798F0621B730B840B950B62
:103CB00039F40A2661F0232B242B252B21F40895B7
:103CC0000A2609F4A140A6958FEF811D811D089554
:103CD00097F99F6780E870E060E008959FEF80ECBF
:103CE000089500240A941616170618060906089562
:103CF00000240A9412161306140605060895092EC8
:103D00000394000C11F4882352F0BB0F40F4BF2B36
:103D100011F460FF04C06F5F7F4F8F4F9F4F089576
:103D200057FD9058440F551F59F05F3F71F047956C
:103D3000880F97FB991F61F09F3F79F08795089551
:103D4000121613061406551FF2CF4695F1DF08C070
:103D5000161617061806991FF1CF8695710561058D
:103D600008940895E894BB2766277727CB0197F935
:103D700008950E94CC1E0C947F1E0E94711E38F084
:103D80000E94781E20F0952311F00C94681E0C946C
:103D90006E1E11240C94B31E0E94901E70F3959F0A
:103DA000C1F3950F50E0551F629FF001729FBB2732
:103DB000F00DB11D639FAA27F00DB11DAA1F649FCE
:103DC0006627B00DA11D661F829F2227B00DA11D81
:103DD000621F739FB00DA11D621F839FA00D611D07
:103DE000221F749F3327A00D611D231F849F600D28
:103DF000211D822F762F6A2F11249F5750409AF051
:103E0000F1F088234AF0EE0FFF1FBB1F661F771FDC
:103E1000881F91505040A9F79E3F510580F00C94A7
:103E2000681E0C94B31E5F3FE4F3983ED4F386956E
:103E300077956795B795F795E7959F5FC1F7FE2B47
:103E4000880F911D9695879597F90895283008F069
:103E500027E03327DA01990F311D87FD9160009625
:103E60006105710539F432602E5F3D9330E32A9588
:103E7000E1F708959F3F30F080387105610509F042
:103E80003C5F3C5F3D93913008F08068911DDF936B
:103E9000CF931F930F93FF92EF92192F987F9695D0
:103EA000E92F96959695E90FFF27E250FF4F992746
:103EB0003327EE24FF24A701E70105900894079417
:103EC00028F4360FE71EF81E491F511D660F771F95
:103ED000881F991F0694A1F70590079428F4E70E10
:103EE000F81E491F561FC11D770F881F991F661F97
:103EF0000694A1F70590079428F4F80E491F561F61
:103F0000C71FD11D880F991F661F771F0694A1F741
:103F10000590079420F4490F561FC71FD81F990F0B
:103F2000661F771F881F0694A9F784911095177054
:103F300041F0D695C79557954795F794E7941A950C
:103F4000C1F7E4EAF0E06894159015913591659118
:103F5000959105907FE27395E118F10A430B560B9A
:103F6000C90BD009C0F7E10CF11E431F561FC91F32
:103F7000D01D7EF4703311F48A95E6CFE894015099
:103F800030F0080F0AF40027021708F4202F2395B9
:103F9000022F7A3328F079E37D932A95E9F710C050
:103FA0007D932A9589F60694979567953795179589
:103FB0001794E118F10A430B560BC90BD00998F07E
:103FC00023957E9173957A3308F070E37C932013E8
:103FD000B8F77E9170617D9330F0839571E37D93A6
:103FE00070E32A95E1F71124EF90FF900F911F9154
:103FF000CF91DF91992787FD90950895FC01059059
:10400000615070400110D8F7809590958E0F9F1FDA
:104010000895FB01DC0101900D920020E1F7089565
:10402000FC016150704001900110D8F78095909587
:104030008E0F9F1F08950F931F93CF93DF93FB0164
:10404000238121FD03C08FEF9FEF28C022FF16C000
:1040500046815781248135814217530744F4A0815A
:10406000B1819D012F5F3F4F318320838C93268147
:1040700037812F5F3F4F3783268310C0EB01092F15
:10408000182F0084F185E02D0995892BE1F68E81AA
:104090009F8101969F838E83812F902FDF91CF91F7
:1040A0001F910F910895AEE0B0E0E9E5F0E20C94C5
:1040B000F51C0D891E8986E08C831A8309838FEF96
:1040C0009FE79E838D83AE01475E5F4F6F89788D3A
:1040D000CE0101960E94EF152F813885F801E20F7D
:1040E000F31F10822E96E4E00C94111DFA01AA270A
:1040F000283051F1203181F1E8946F936E7F6E5F2B
:104100007F4F8F4F9F4FAF4FB1E03ED0B4E03CD0D8
:10411000670F781F891F9A1FA11D680F791F8A1FBB
:10412000911DA11D6A0F711D811D911DA11D20D022
:1041300009F468943F912AE0269F11243019305DDC
:104140003193DEF6CF010895462F4770405D4193CD
:10415000B3E00FD0C9F7F6CF462F4F70405D4A331A
:1041600018F0495D31FD4052419302D0A9F7EACFE2
:10417000B4E0A6959795879577956795BA95C9F711
:1041800000976105710508959B01AC010A2E069404
:104190005795479537952795BA95C9F7620F731FBD
:0C41A000841F951FA01D0895F894FFCF08
:1041AC00030000000000000000000000F0F8F8F828
:1041BC00F8F8F0E0800000000000000000000000B3
:1041CC0000000000000000000000000000000000E3
:1041DC0000000000000000000000000000000000D3
:1041EC0000000000000000000000000000000000C3
:1041FC0000000000000000000000000000000000B3
:10420C0000000000000000000000000000000000A2
:10421C000000000000000000000000000000000092
:10422C0000000000000000000000C0E01F183E2449
:10423C002E080F7FFCF0C0C0000000000000000042
:10424C00FEFEFEFE020286FEFEFC78000000C0C0F0
:10425C00E02060E0C08000E0E0E0E0C060E0E0E092
:10426C00C0000080C0E0E020E0F8CC9C1C0000E026
:10427C00E0E0E00000E0E0E0E00000EEEEEEE00068
:10428C0000E0E0E0E0C060E0E0E0C00000FEFEFE28
:10429C00FE020286FEFEFC780000EEEEEEE0000070
:1042AC000000000000804040383F4FC080000000FC
:1042BC00000000C0287F7F7F9E00000000000000EF
:1042CC007F7F7F7F0101010101000000001F3F7F04
:1042DC007A4242433B1B007F7F7F7F00007F7F7FC2
:1042EC007F007073FFEFEFE8EFEFE7E3C000003FF4
:1042FC007F7F7F60307F7F7F7F00007F7F7F7F00AD
:10430C00007F7F7F7F00007F7F7F7F00007F7F7F2C
:10431C007F0101010101000000007F7F7F7F000011
:10432C00000000000007080810101010130F0C0CF0
:10433C000C0E0E0E113010080C05030000000000CE
:10434C000000000000000000000000000000000061
:10435C000000000000000000000000000000000051
:10436C000000000307040404040407030100000018
:10437C000000000000000000000000000000000031
:10438C000000000000000000000000000000000021
:10439C000000000000000000000000000000000011
:1043AC000000FF0102010002FFFF0200010201FFF9
:1043BC00000001FF02FF000201010200FF02FF01E9
:1043CC0000000000000000005F0000000700070074
:1043DC00147F147F14242A7F2A1223130864623654
:1043EC00495522500005030000001C2241000041E9
:1043FC00221C0014083E081408083E08080050301F
:10440C00000008080808080060600000201008047C
:10441C00023E5149453E00427F40004261514946AF
:10442C002141454B311814127F1027454545393C25
:10443C004A4949300171090503364949493606494B
:10444C0049291E003636000000563600000814229A
:10445C0041001414141414004122140802015109CF
:10446C0006324979413E7E1111117E7F4949493608
:10447C003E414141227F4141221C7F494949417FB4
:10448C00090909013E4149497A7F0808087F004122
:10449C007F41002040413F017F081422417F404072
:1044AC0040407F020C027F7F0408107F3E41414157
:1044BC003E7F090909063E4151215E7F09192946B3
:1044CC00464949493101017F01013F4040403F1FAE
:1044DC002040201F3F4038403F63140814630708F6
:1044EC007008076151494543007F414100020408AF
:1044FC0010200041417F0004020102044040404072
:10450C0040000102040020545454787F484444383D
:10451C003844444420384444487F38545454180890
:10452C007E0901020C5252523E7F0804047800446A
:10453C007D40002040443D007F1028440000417F16
:10454C0040007C041804787C080404783844444403
:10455C00387C14141408081414187C7C08040408FF
:10456C004854545420043F4440203C4040207C1C80
:10457C002040201C3C4030403C44281028440C5027
:10458C0050503C4464544C44000836410000007FB9
:10459C000000004136080010080810087846414613
:1045AC00784D4F544F523A5345545F4450533A4907
:1045BC006E636F72726563742054797065004D4F31
:1045CC00544F523A5345545F444547533A496E63EE
:1045DC006F72726563742054797065004D4F544F3F
:1045EC00523A5345545F4449523A496E636F727262
:1045FC006563742054797065004D4F544F523A5393
:10460C0045545F503A496E636F72726563742054FF
:10461C00797065004D4F544F523A5345545F493AA7
:10462C00496E636F72726563742054797065004DC6
:10463C004F544F523A5345545F443A496E636F722C
:10464C00726563742054797065004D4F544F523A23
:10465C005345545F454E433A496E636F72726563BE
:10466C00742054797065004D4F544F523A53455451
:10467C005F4354524C3A496E636F72726563742097
:10468C0054797065004D4F544F523A556E6B6E6FA6
:10469C00776E204F70436F6465004F4C45443A531E
:1046AC0045545F45313A496E636F7272656374208D
:1046BC0054797065004F4C45443A5345545F45322C
:1046CC003A496E636F727265637420547970650039
:1046DC004F4C45443A5345545F45333A496E636FEA
:1046EC0072726563742054797065004F4C45443A7E
:1046FC005345545F45343A496E636F727265637407
:10470C002054797065004F4C45443A5345545F57DB
:10471C00313A496E636F72726563742054797065B7
:10472C00004F4C45443A5345545F57323A496E63F7
:10473C006F72726563742054797065004F4C4544F8
:10474C003A5345545F57333A496E636F72726563DF
:10475C00742054797065004F4C45443A5345545F6E
:10476C0057343A496E636F72726563742054797072
:10477C0065004F4C45443A556E6B6E6F776E204F0B
:10478C0070436F646500446174616772616D3A5582
:10479C006E6B6E6F776E204164647265737300206C
:1047AC0020656E633A202536640A00202064656714
:1047BC003A202536640A0020206470733A2025368E
:1047CC00640A0020202041202020204220204F6E0F
:1047DC003F20256400202020412020202042202042
:1047EC00006520202564006D63202564006465202D
:1047FC0025640064743A256600424154544552596C
:10480C000056203D200049203D200025312E3366E6
:10481C0020560A0025332E3366206D410A004D4F79
:10482C00544F5253006469723A002043570043437B
:10483C0057004F4646006470733A002536640045B5
:10484C004E434F4445525300656E63313A00656EDA
:10485C0063323A00504F534954494F4E00706F73B6
:10486C003A006465673A004950204164647265738C
:10487C00736573006574682020202020202E202072
:10488C00202E2020202E0025336400776C616E20B2
:10489C00202020202E2020202E2020202E004552AB
:0E48AC00524F520053485554444F574E00008F
:00000001FF
