:100000000C946A030C9487030C9487030C945D078B
:100010000C94E0040C9485070C9487030C948703DC
:100020000C9487030C948A060C9487030C94870322
:100030000C9487030C9487030C9487030C94870318
:100040000C9487030C9487030C94D2030C94000443
:100050000C9487030C9405070C9487030C94870376
:100060000C9487030C9487030C9487030C94B605B7
:100070000C942A040C9458040C9487030C94870362
:100080000C9487030C9487030C9487030C948703C8
:100090000C9487030C9487030C9487030C948703B8
:1000A0000C9487030C9487030C9487030C948703A8
:1000B0000C948703430B770BA40BBF0BEE0B260CA2
:1000C0004D0C660D660D660D660D660D660D660DB2
:1000D000660D660D660D660D660D660D660D660D88
:1000E000660D660D660D660D660D660D660D660D78
:1000F000660D660D660D660D660D660D660D660D68
:10010000660D660D660D660D660D660D660D660D57
:10011000660D660D660D660D660D660D660D660D47
:10012000660D660D660D660D660D660D660D660D37
:10013000660D660D660D660D660D660D660D660D27
:10014000660D660D660D660D660D660D660D660D17
:10015000660D660D660D660D660D660D660D660D07
:10016000660D660D660D660D660D660D660D660DF7
:10017000660D660D660D660D660D660D660D660DE7
:10018000660D660D660D660D660D660D660D660DD7
:10019000660D660D660D660D660D660D660D660DC7
:1001A000660D660D660D660D660D660D660D660DB7
:1001B000660D660D680C880CA80CC50CF10C1D0DA5
:1001C000490D6E616E00696E660000407A10F35A48
:1001D00000A0724E18090010A5D4E80000E8764887
:1001E000170000E40B54020000CA9A3B000000E133
:1001F000F505000080969800000040420F000000C6
:10020000A08601000000102700000000E8030000A5
:1002100000006400000000000A000000000001006F
:10022000000000002C76D888DC674F0823DFC1DF90
:10023000AE59E1B1B796E5E3E453C63AE651997693
:1002400096E8E6C28426EB898C9B62ED407C6FFCCD
:10025000EFBC9C9F40F2BAA56FA5F490055A2AF70F
:100260005C936B6CF9676DC11BFCE0E40D47FEF518
:1002700020E6B500D0ED902E030094357705008080
:10028000841E080000204E0A000000C80C333333DF
:10029000330F986E12831141EF8D2114893BE6557F
:1002A00016CFFEE6DB18D1844B381BF77C1D901D62
:1002B000A4BBE424203284725E228100C9F124ECC4
:1002C000A1E53D274552524F523A20556E6B6E6F55
:1002D000776E204F70436F64650A004552524F524B
:1002E0003A20556E6B6E6F776E204F70436F64656A
:1002F0000A004552524F523A20496E636F7272653E
:10030000637420547970650A004552524F523A2066
:10031000556E6B6E6F776E204F70436F64650A0089
:100320004552524F523A20496E636F727265637440
:1003300020547970650A004552524F523A20496E56
:10034000636F727265637420547970650A00455258
:10035000524F523A20556E6B6E6F776E204F70433E
:100360006F64650A004552524F523A20496E636FDE
:10037000727265637420547970650A004552524F59
:10038000523A20496E636F727265637420547970BB
:10039000650A004552524F523A20496E636F72729D
:1003A00065637420547970650A004552524F523A81
:1003B00020556E6B6E6F776E204F70436F64650AC9
:1003C000004552524F523A20496E636F7272656314
:1003D0007420547970650A004552524F523A2049B0
:1003E0006E636F727265637420547970650A00459C
:1003F00052524F523A20496E636F72726563742095
:10040000547970650A004552524F523A20556E6B2E
:100410006E6F776E204F70436F64650A00455252CD
:100420004F523A20496E636F72726563742054793B
:1004300070650A004552524F523A20496E636F72FE
:100440007265637420547970650A004552524F52A8
:100450003A20496E636F72726563742054797065D7
:100460000A004552524F523A20496E636F727265CC
:10047000637420547970650A004552524F523A20F5
:10048000496E636F727265637420547970650A00F7
:100490004552524F523A20496E636F7272656374CF
:1004A00020547970650A004552524F523A20556ED9
:1004B0006B6E6F776E204F70436F64650A00455214
:1004C000524F523A20496E636F72726563742054C2
:1004D0007970650A004552524F523A20496E636F57
:1004E000727265637420547970650A004552524FE8
:1004F000523A20496E636F7272656374205479704A
:10050000650A004552524F523A20496E636F72722B
:1005100065637420547970650A004552524F523A0F
:1005200020496E636F727265637420547970650A36
:10053000004552524F523A20496E636F72726563A2
:100540007420547970650A004552524F523A20493E
:100550006E636F727265637420547970650A00452A
:1005600052524F523A20556E6B6E6F776E20416437
:1005700064726573730A004552524F523A204352D7
:1005800043204661696C65640A004552524F523AF5
:1005900020446174616772616D20427566666572A0
:1005A000204F766572666C6F770A004552524F5243
:1005B0003A205541525420427566666572204F7646
:1005C0006572666C6F770A004552524F523A205559
:1005D00041525420427566666572204F766572728C
:1005E000756E0A004552524F523A204261642055BE
:1005F000415254204672616D650A00446576696314
:1006000065207475726E6564206F6E0A00446576AD
:100610006963652052657365742066726F6D20573B
:1006200061746368646F672054696D656F75740ADF
:10063000004465766963652052657365742066724F
:100640006F6D2042726F776E204F75742044657411
:100650006563746F720A004465766963652052654C
:100660007365742066726F6D2045787465726E6173
:100670006C2052657365740A004465766963652071
:1006800052657365742066726F6D20506F77657266
:10069000204F6E2052657365740A004C6F7720629C
:1006A0006174746572792073687574646F776E20F5
:1006B000726571756573740054686973206973207D
:1006C000612073687574646F776E207265717565EB
:1006D0007374000011241FBECFEFD8E0DEBFCDBF82
:1006E00011E0A0E0B1E0E2E6FCE302C005900D926B
:1006F000A034B107D9F723E0A0E4B1E001C01D9216
:10070000AA32B207E1F70E94A3130C942F1E0C9497
:1007100000001092B9008CE08093B8000895CF9348
:10072000DF93ECEBF0E024EAA9EBB0E0CBEBD0E018
:1007300034E844E9208390819923ECF79C91987FD9
:10074000983011F09031B1F78883308390819923EC
:10075000ECF79C91987F903211F0983529F4408302
:10076000908194FDFDCFE6CFDF91CF91089584E98C
:100770008093BC00ECEBF0E0808184FDFDCF089518
:100780008093BB0084E88093BC00ECEBF0E08081B8
:100790008823ECF79091B900987F81E0983209F4B2
:1007A00080E008951F920F920FB60F9211242F939D
:1007B0008F939F93EF93FF938091C0002091C60089
:1007C0008C71E091C701EF5FEF739091C601E9175B
:1007D00039F0E093C701F0E0E653FE4F208301C0FB
:1007E00082E09091C501892B8093C501FF91EF9123
:1007F0009F918F912F910F900FBE0F901F90189582
:100800001F920F920FB60F9211248F939F93EF9325
:10081000FF939091C9018091C801981769F0E09108
:10082000C801EF5FEF73E093C801F0E0E65FFD4FB2
:1008300080818093C60005C0E1ECF0E080818F7D6F
:100840008083FF91EF919F918F910F900FBE0F903A
:100850001F9018951F920F920FB60F9211242F938D
:100860008F939F93EF93FF938091C8002091CE00C8
:100870008C71E0914201EF5FEF7390914101E917B4
:1008800039F0E0934201F0E0EB5BFE4F208301C0C2
:1008900082E090914001892B80934001FF91EF917C
:1008A0009F918F912F910F900FBE0F901F901895D1
:1008B0001F920F920FB60F9211248F939F93EF9375
:1008C000FF939091440180914301981769F0E09162
:1008D0004301EF5FEF73E0934301F0E0EB57FE4F0E
:1008E00080818093CE0005C0E9ECF0E080818F7DAF
:1008F0008083FF91EF919F918F910F900FBE0F908A
:100900001F901895109244011092430110924201D9
:100910001092410199231CF422E02093C8009078A2
:100920009093CD008093CC0088E98093C90086E045
:100930008093CA00089590914201809141019817D7
:10094000A9F0909141019F5F9F73E92FF0E0EB5B6D
:10095000FE4F20818091400190934101109240010F
:1009600090E0982F8827820F911D089580E091E0F4
:100970000895209144012F5F2F739091430129170F
:10098000E1F3E22FF0E0EB57FE4F80832093440128
:10099000E9ECF0E08081806280830895CF93DF935B
:1009A000EC012196FC018491882339F00E94B9045E
:1009B000FE01849121968111F9CFDF91CF910895A5
:1009C0001F920F920FB60F9211242F933F934F93C4
:1009D0005F936F938F939F93AF93BF93EF93FF9327
:1009E00026B122FB882780F990E036B120915D0284
:1009F00021113BC020915902281709F49FC0209172
:100A00006202213059F4E9E5F2E0228133812F5F5F
:100A10003F4F3383228321E0228724C02F3F59F4A4
:100A2000E9E5F2E0228133812150310933832283C9
:100A30002FEF228717C020916302213049F4E9E5A6
:100A4000F2E0228133812F5F3F4F338322830AC03C
:100A50002F3F41F4E9E5F2E0228133812150310951
:100A6000338322838093590269C033FB332730F9E3
:100A7000213031F5A9E5B2E02C9111966C911197D6
:100A800012964D915C911397220F262BFC01FF27A4
:100A9000EE0FFF1FE32BF0E064E0269FE00DF11D59
:100AA0001124E05DFE4F9081490F511D97FD5A952D
:100AB00013965C934E9312978C9311963C933EC081
:100AC0002230C9F58327909159029817B9F1909176
:100AD0006202913051F4E9E5F2E0228133812F5F27
:100AE0003F4F33832283928723C09F3F51F4E9E530
:100AF000F2E02281338121503109338322839287AE
:100B000017C090916302913049F4E9E5F2E0228147
:100B100033812F5F3F4F338322830AC09F3F41F4CD
:100B2000E9E5F2E0228133812150310933832283C8
:100B30008093590203C081E080935D02E5EEF2E00C
:100B400081E0808384E690E094838383FF91EF913A
:100B5000BF91AF919F918F916F915F914F913F9115
:100B60002F910F900FBE0F901F9018951F920F920C
:100B70000FB60F9211242F933F934F935F936F9370
:100B80008F939F93AF93BF93EF93FF932CB121FB70
:100B9000882780F990E03CB12091EE0221113BC002
:100BA0002091EA02281709F49DC02091F302213018
:100BB00059F4EAEEF2E0228133812F5F3F4F338315
:100BC000228321E0228724C02F3F59F4EAEEF2E08D
:100BD0002281338121503109338322832FEF2287F1
:100BE00017C02091F402213049F4EAEEF2E02281AC
:100BF00033812F5F3F4F338322830AC02F3F41F45D
:100C0000EAEEF2E0228133812150310933832283DD
:100C10008093EA0267C03170213031F5AAEEB2E06C
:100C20002C9111966C91119712964D915C9113979E
:100C3000220F262BFC01FF27EE0FFF1FE32BF0E016
:100C400064E0269FE00DF11D1124E05EFE4F9081CF
:100C5000490F511D97FD5A9513965C934E93129729
:100C60008C9311963C933EC02230C9F58327909116
:100C7000EA029817B9F19091F302913051F4EAEE3B
:100C8000F2E0228133812F5F3F4F338322839287AB
:100C900023C09F3F51F4EAEEF2E0228133812150DC
:100CA000310933832283928717C09091F4029130E7
:100CB00049F4EAEEF2E0228133812F5F3F4F338324
:100CC00022830AC09F3F41F4EAEEF2E022813381A1
:100CD00021503109338322838093EA0203C081E0EB
:100CE0008093EE02E5EEF2E081E0808384E690E01E
:100CF00094838383FF91EF91BF91AF919F918F91E7
:100D00006F915F914F913F912F910F900FBE0F9078
:100D10001F9018951F920F920FB60F9211248F9368
:100D20009F93EF93FF9380914A02811104C081E069
:100D300080934A0207C081E0809368028093F902A1
:100D400010924A028091280390912903892B41F047
:100D5000E5E2F3E08381948101979483838302C069
:100D6000109225038091E8029091E902892B41F0CD
:100D7000E5EEF2E08381948101979483838302C03E
:100D80001092E5028091BD029091BE02892B41F044
:100D9000EAEBF2E08381948101979483838302C01C
:100DA0001092BA02809157029091580218161906B3
:100DB0003CF4E3E5F2E08481958101979583848397
:100DC0008091E3029091E402181619063CF4EFEDCD
:100DD000F2E08481958101979583848380917F02DD
:100DE00090918002181619063CF4EBE7F2E084813A
:100DF0009581019795838483FF91EF919F918F91C6
:100E00000F900FBE0F901F9018951F920F920FB664
:100E10000F9211248F93EF93FF9380918B02823076
:100E200058F0E1E8F2E0828581508287EAE7F0E05D
:100E300080818064808308C080918B02813021F49E
:100E4000E1E8F2E0838712868091B802823058F0A0
:100E5000EEEAF2E0828581508287EAE7F0E0808165
:100E60008064808308C08091B802813021F4EEEA6A
:100E7000F2E083871286FF91EF918F910F900FBE62
:100E80000F901F901895FC0184819581892BA1F406
:100E90006083611105C0918181E08927818308C049
:100EA000613031F48281813019F491818927818305
:100EB00084EF91E09583848308951F920F920FB67B
:100EC0000F9211242F933F934F935F936F937F93D0
:100ED0008F939F93AF93BF93EF93FF9363B1617031
:100EE00083E592E00E944307FF91EF91BF91AF919C
:100EF0009F918F917F916F915F914F913F912F9132
:100F00000F900FBE0F901F9018951F920F920FB663
:100F10000F9211242F933F934F935F936F937F937F
:100F20008F939F93AF93BF93CF93DF93EF93FF93F1
:100F300069B1661F6627661FC9B1C295C170DC2FF3
:100F40008091DF02861721F08FED92E00E94430727
:100F500080917B028D1729F06C2F8BE792E00E9425
:100F60004307FF91EF91DF91CF91BF91AF919F9197
:100F70008F917F916F915F914F913F912F910F9042
:100F80000FBE0F901F901895CF92DF92EF92FF92B5
:100F9000CF93DF93E9E5F2E0C0E0D3E2D18BC08BE1
:100FA000138A128AA0E0B1E0B58BA48B23E030E075
:100FB000358F248F4FEF5FEF6FEF7FE3468F578FB3
:100FC00060A371A381E08483EAEEF2E0D18BC08B51
:100FD000138A128AB58BA48B358F248F468F578F37
:100FE00060A371A38483EDE8F2E00F2EFAE5CF2E23
:100FF000D12CE12CF12CF02DC182D282E382F4823B
:10100000158216821782108644EB50E060E070E093
:1010100041875287638774872CED35E036872587B3
:1010200088EB9BE0908B8787ECE0F3E0C182D28273
:10103000E382F482158216821782108641875287D6
:101040006387748736872587908B8787EEE9F2E080
:1010500080E480831282138214821182C3E5D2E07D
:101060001A82AFEDB2E012961C921297EBE7F2E013
:1010700012821B8213961C921382E1E8F2E0128620
:1010800082EE95E2A0E8B1E486839783A087B187DA
:10109000EEEAF2E0128680E090E4AEE4B0E486830B
:1010A0009783A087B187EDE1F3E080E090E0A0EDC9
:1010B000B0E480839183A283B3831582148288E88D
:1010C00093E197838683DF91CF91FF90EF90DF903C
:1010D000CF900895E4E6F0E080818670808384B14B
:1010E000866084B987B1836087B9E0E8F0E08081E9
:1010F000826A8083E1E8F0E08081896180838FEFFC
:101100009FEF909387008093860087B1837F87B994
:1011100088B18C6088B98CE080936C00E8E6F0E0E0
:101120008081826080838DB18C7F8DB98EB1836028
:101130008EB983E0809373008081886080838AB158
:1011400083608AB9A0E9B0E08C9182688C93A1E9B0
:10115000B0E08C918A618C9320E335E7309397005F
:1011600020939600A0EAB0E08C9182688C93A1EA6B
:10117000B0E08C918A618C933093A7002093A600F5
:1011800084B5836F84BD85B5836085BDA0EBB0E079
:101190008C9183638C93A1EBB0E08C9181608C93F4
:1011A0002098ABE6B0E08C9181608C935798ADE6C7
:1011B000B0E08C9180688C9354988C9180618C9372
:1011C000808185608083259A2D9AE0E7F0E0808118
:1011D0008160808386E480937C008EE880937A002F
:1011E00080EC80937E008CE090E80E9482040E9454
:1011F00089037894089584B714BE823071F018F48E
:10120000813031F019C0843069F0883081F014C029
:1012100089E796E00E94CE04089587E596E00E9453
:10122000CE04089581E396E00E94CE0408958DE0F7
:1012300096E00E94CE0408958BEF95E00E94CE04C4
:1012400008958F3F21F48AB187798AB908954AB108
:1012500021E030E0B90102C0660F771F8A95E2F7FE
:10126000CB01809584238AB908958F3F21F48AB1F8
:1012700088668AB908954AB121E030E0B90102C018
:10128000660F771F8A95E2F7CB01842B8AB9089500
:1012900099E2899F912D112492959F7024E6929F47
:1012A00080191124811104C086E00E94210908954B
:1012B000569A2CED829FC001112464E670E00E94D2
:1012C000FF1B67BD089599E2899F912D1124929586
:1012D0009F7024E6929F80191124811104C085E03B
:1012E0000E9421090895559A28E7829FC001112480
:1012F00064E670E00E94FF1B68BD089599E2899F33
:10130000912D112492959F7024E6929F80191124AB
:10131000811104C083E00E9421090895539A2CE8AA
:10132000829FC001112464E670E00E94FF1B60935D
:10133000B4000895DC017723DCF4613F8FEF780778
:1013400034F488E08C938BE211968C93089588E0B6
:101350008C93CB01992324F488279927861B970B1C
:10136000FC01E050FF4F8081806811968C930895B6
:10137000161617068CF07727FB01EE0FFF1F660F7E
:10138000771F660F771F660F771FE60FF71FE05F67
:10139000FE4F80818C9308956B307105DCF09DECDD
:1013A000699F912D1124969596959695E92FF0E0D9
:1013B000E05FFE4F80818C93990F892F880F880FF3
:1013C000980F691BE62FF0E0E050FF4F80818068A6
:1013D00011968C930895EF92FF920F931F93CF93E2
:1013E000DF937C01862FC42F122F0E948F038C2F36
:1013F0000E94C003112371F0E7011150012F10E08A
:101400000F5F1F4F0E0D1F1D89910E94C003C01753
:10141000D107D1F70E94B70381E0DF91CF911F91EF
:101420000F91FF90EF9008950F931F93CF93DF9349
:1014300000D0CDB7DEB719821A820EE912E022E0A1
:1014400046E0F8016081CE0101960E94EB0922E09E
:1014500042E0F8016081CE0101960E94EB090F90F5
:101460000F90DF91CF911F910F9108950F931F93CC
:10147000CF93DF9300D0CDB7DEB78C0119821A82EB
:10148000FC0162816F3F29F070E0CE0101960E945D
:101490009A0922E042E0F8016081CE0101960E94A3
:1014A000EB090F900F90DF91CF911F910F9108954D
:1014B0006623D9F0FC016150262F30E02F5F3F4FAB
:1014C000AC01420F531F80E038E02EEA919189274A
:1014D000932F80FF03C08695822701C08695915087
:1014E000C1F7E417F50791F7089580E008950E9489
:1014F0009B0490FD30C094FF0EC084EE95E00E94E6
:10150000CE04EAEBF2E081E0808388EE93E09483FE
:10151000838380E0089593FF0EC088EC95E00E94DD
:10152000CE04EAEBF2E081E0808388EE93E09483DE
:10153000838380E0089591FF0FC08BEA95E00E94BD
:10154000CE04EAEBF2E081E0808388EE93E09483BE
:10155000838380E0089580E00895DC01E3E5F2E014
:101560002FE432E08D918293E217F307D9F760916F
:101570004F02709150028091510290915202089551
:101580000F931F93CF938C0181E10E94B904F8015E
:101590008081882361F0C0E0F801EC0FF11D8081AB
:1015A0000E94B904CF5FF8018081C817A8F3CF91DA
:1015B0001F910F910895EF920F931F93CF93DF9395
:1015C000FC018E2D61834283833659F028F48334E5
:1015D00041F0893449F027C0863651F0893621F030
:1015E00022C0038361E020C01383048362E01CC037
:1015F000AFE4B2E0402F512F622F732F4D935D93D4
:101600006D937C93139713968C9113978383129603
:101610008C911297848311968C91119785838C916C
:10162000868364E001C060E084E0860F8083C62F7B
:10163000D0E02396CE0FDF1F6D5FCF010E94580AC6
:101640008883DF91CF911F910F91EF900895CF92F2
:10165000DF92EF920F931F93CF93DF9300D000D0D0
:10166000CDB7DEB76C018B01DC011296EC914E2FE9
:1016700050E0FA013197E738F10508F027C2E65A41
:10168000FF4F0C94321CFC018081853059F5838119
:1016900090E0982F88272481822B9C01992324F4A1
:1016A00022273327281B390BD8011C963C932E93F5
:1016B0001B971816190624F481E019968C9309C01B
:1016C000992324F48FEFF801818703C0D80119967C
:1016D0001C92EAEBF2E081E0808388EE93E0948351
:1016E000838300C288E495E00E94CE04FBC1FC0124
:1016F0008081853021F5D80113961C921E92129795
:1017000018961C921E921797838190E0982F882735
:101710002481822B1E969C938E931D971816190672
:1017200024F481E019968C93DDC1992324F48FEF82
:10173000F8018187D7C1D80119961C92D3C181E3E2
:1017400095E00E94CE04CEC1FC018081843091F4EA
:10175000838118162CF481E0D80119968C93C2C1AC
:10176000882324F48FEFF8018187BCC1D801199632
:101770001C92B8C18AE195E00E94CE04B3C1FC017D
:101780008081873031F53396DE01119687E0C80EEF
:10179000D11C81918D93EC15FD05D9F7CE010196F1
:1017A0000E94AD0A20E030E040E053E40E947E1B3E
:1017B0000E94961AD80151967C936E9350976F5F52
:1017C0007F4F8FEF9FE70E94FF1BF801758F648F9B
:1017D00089C183E095E00E94CE0484C1DC018C9134
:1017E000873079F5F6013396DE01119687E0C80E51
:1017F000D11C81918D93EC15FD05D9F7CE01019691
:101800000E94AD0A20E030E040E053E40E947E1BDD
:101810000E94961AD80153967C936E9352976F5FED
:101820007F4F9B01770F440B550B6FEF7FEF8FEFCF
:101830009FE30E94131CF801268F378F40A351A30A
:1018400051C18CEE94E00E94CE044CC1DC018C911D
:101850008730F1F4F6013396DE01119687E0C80E69
:10186000D11C81918D93EC15FD05D9F7CE01019620
:101870000E94AD0A20E030E040E053E40E947E1B6D
:101880000E94961AD80155967C936E9354972AC15C
:1018900085ED94E00E94CE0425C1FC018081843056
:1018A00091F48381833028F081E0D80114968C93E1
:1018B00002C0F8018483D80118961C921E921797D3
:1018C00019961C920FC18EEB94E00E94CE040AC1BF
:1018D000F8018581968190934C0280934B02009190
:1018E0004B0210914C0220914D0230914E020F2E6E
:1018F000F9E6EF2EF02D41E0D60111966C9183EAC6
:1019000092E00E94DB0A83EA92E00E94C00AEAC0E9
:10191000F8018781908590934C0280934B0200914F
:101920004B0210914C0220914D0230914E020F2E2D
:10193000F9E6EF2EF02D42E0D60111966C9183EA84
:1019400092E00E94DB0A83EA92E00E94C00ACAC0C9
:10195000F801818580934B0200914B0210914C025B
:1019600020914D0230914E020F2EF3E6EF2EF02D16
:1019700043E0D60111966C9183EA92E00E94DB0A63
:1019800083EA92E00E94C00AADC0F80160897189C3
:10199000772314F461587F4F660F672F661F770B0C
:1019A000072E000C880B990B0E94CE1A60934B02F5
:1019B00070934C0280934D0290934E028B019C01D8
:1019C0000F2EF6E6EF2EF02D44E0D60111966C9125
:1019D00083EA92E00E94DB0A83EA92E00E94C00A56
:1019E00081C0F80162897389772314F461587F4FAD
:1019F000660F672F661F770B072E000C880B990B5D
:101A00000E94CE1A60934B0270934C0280934D0259
:101A100090934E028B019C010F2EF6E6EF2EF02DD7
:101A200045E0D60111966C9183EA92E00E94DB0AB0
:101A300083EA92E00E94C00A55C0F8016489758962
:101A4000772314F461587F4F660F672F661F770B5B
:101A5000072E000C880B990B0E94CE1A60934B0244
:101A600070934C0280934D0290934E028B019C0127
:101A70000F2EF6E6EF2EF02D46E0D60111966C9172
:101A800083EA92E00E94DB0A83EA92E00E94C00AA5
:101A900029C0F801848180934B0200914B02109180
:101AA0004C0220914D0230914E020F2EF3E6EF2EA4
:101AB000F02D47E0D60111966C9183EA92E00E94E6
:101AC000DB0A83EA92E00E94C00A0CC087EA94E035
:101AD0000E94CE04EAEBF2E081E0808388EE93E09E
:101AE000948383830F900F900F900F90DF91CF918D
:101AF0001F910F91EF90DF90CF900895CF92DF92DA
:101B0000EF92FF920F931F93FC019281963009F49C
:101B1000F9C088F4933009F46CC030F49130F9F0D6
:101B2000923009F454C0CAC1943009F496C095307B
:101B300009F4C7C0C3C1933809F440C138F49138DF
:101B400009F401C1923809F41EC1B8C1953809F4ED
:101B500075C108F453C1963809F490C1AFC18081B2
:101B6000853081F5838190E0982F88272481822B0E
:101B70008C01092E000C220B330BDB011996CD9042
:101B8000DD90ED90FC901C97C016D106E206F3069E
:101B900014F4C6010BC0FB01C580D680E780F08439
:101BA0000C151D052E053F050CF4C601092E000C71
:101BB000AA0BBB0BFB0181839283A383B48381E0D7
:101BC000808388C180E994E00E94CE0483C1808133
:101BD000843051F48381181624F481E0DB018C9366
:101BE00079C1FB01108276C189E794E00E94CE049E
:101BF00071C18081853061F5838190E0982F8827BD
:101C00002481822B992314F480E090E08936F1E05E
:101C10009F0714F088E691E0DB0119960D911D9164
:101C20002D913C911C976C01092E000CEE08FF08C9
:101C30000C151D052E053F050CF4C801092E000CDE
:101C4000AA0BBB0BFB0185839683A783B08742C198
:101C500082E694E00E94CE043DC18081853061F52A
:101C6000838190E0982F88272481822B992314F474
:101C700080E090E08936F1E09F0714F088E691E07B
:101C8000DB0115960D911D912D913C9118976C01DA
:101C9000092E000CEE08FF08C016D106E206F30676
:101CA0000CF4C801092E000CAA0BBB0BFB018187A9
:101CB0009287A387B4870EC18BE494E00E94CE0480
:101CC00009C180818530C9F4838190E0982F8827ED
:101CD0002481822BDB011F962D913C91509721335B
:101CE000B5E73B0710F020E335E78217930708F4C8
:101CF0009C01FB0136872587EDC084E394E00E94B8
:101D0000CE04E8C080818530C9F4838190E0982FAB
:101D100088272481822B8133F5E79F0710F080E329
:101D200095E7DB011D962D913C911E978217930735
:101D300008F4C901FB01908B8787CCC08DE194E04A
:101D40000E94CE04C7C0DB0111968D919C91129721
:101D500090934C0280934B0200914B0210914C02E5
:101D600020914D0230914E020F2EF9E6EF2EF02D0C
:101D700041E0618183EA92E00E94DB0A83EA92E01B
:101D80000E94C00AA7C0DB018C9180934B02009196
:101D90004B0210914C0220914D0230914E020F2EB9
:101DA000F3E6EF2EF02D42E0618183EA92E00E949B
:101DB000DB0A83EA92E00E94C00A8CC0DB01159620
:101DC0008D919C91169790934C0280934B020091B9
:101DD0004B0210914C0220914D0230914E020F2E79
:101DE000F9E6EF2EF02D43E0618183EA92E00E9454
:101DF000DB0A83EA92E00E94C00A6CC0DB011996FC
:101E00008D919C911A9790934C0280934B02009174
:101E10004B0210914C0220914D0230914E020F2E38
:101E2000F9E6EF2EF02D44E0618183EA92E00E9412
:101E3000DB0A83EA92E00E94C00A4CC0DB011D96D7
:101E40008D919C911E9790934C0280934B02009130
:101E50004B0210914C0220914D0230914E020F2EF8
:101E6000F9E6EF2EF02D45E0618183EA92E00E94D1
:101E7000DB0A83EA92E00E94C00A2CC0DB011F96B5
:101E80008D919C91509790934C0280934B020091BE
:101E90004B0210914C0220914D0230914E020F2EB8
:101EA000F9E6EF2EF02D46E0618183EA92E00E9490
:101EB000DB0A83EA92E00E94C00A0CC086E094E04C
:101EC0000E94CE04EAEBF2E081E0808388EE93E0AA
:101ED000948383831F910F91FF90EF90DF90CF90B9
:101EE0000895EF920F931F93FC019281933009F4B0
:101EF00044C028F4913069F09230E9F0A7C09238DC
:101F000009F468C0933809F481C0913809F09EC083
:101F100046C08081843051F48381181624F481E016
:101F2000DB018C939FC0FB0110829CC08FEE93E07D
:101F30000E94CE0497C080818430D1F4838185369D
:101F400044F084E690E0DB0112969C938E93119707
:101F500089C018163CF4082E000C990BFB019283E3
:101F6000818380C0DB0112961C921E9211977AC069
:101F700088ED93E00E94CE0475C08081853051F4D5
:101F8000838190E0982F88272481822BFB01948302
:101F9000838368C081EC93E00E94CE0463C0DB01C0
:101FA0008C9180934B0200914B0210914C02209136
:101FB0004D0230914E020F2EF3E6EF2EF02D41E050
:101FC000618183EA92E00E94DB0A83EA92E00E9448
:101FD000C00A48C0DB0111968C9180934B0200919E
:101FE0004B0210914C0220914D0230914E020F2E67
:101FF000F3E6EF2EF02D42E0618183EA92E00E9449
:10200000DB0A83EA92E00E94C00A2CC0DB0113962F
:102010008D919C91149790934C0280934B02009168
:102020004B0210914C0220914D0230914E020F2E26
:10203000F9E6EF2EF02D43E0618183EA92E00E9401
:10204000DB0A83EA92E00E94C00A0CC08AEA93E0AD
:102050000E94CE04EAEBF2E081E0808388EE93E018
:10206000948383831F910F91EF900895EF920F93C4
:102070001F93FC019281933009F128F4913069F0AB
:10208000923091F19CC0923809F47DC0933809F4E4
:102090005EC0913809F093C03EC08081843049F41D
:1020A0008381DB0112968C93129781E011968C93B9
:1020B00092C083E993E00E94CE048DC08081843079
:1020C00071F48381803120F08FE0FB01838303C0B2
:1020D000DB0113968C9381E0FB0181837CC08CE74C
:1020E00093E00E94CE0477C08081843079F48381AC
:1020F000803128F08FE0DB0114968C9302C0FB0145
:10210000848381E0DB0111968C9365C085E693E0C2
:102110000E94CE0460C0DB0112968C9180934B022A
:1021200000914B0210914C0220914D0230914E02D1
:102130000F2EF3E6EF2EF02D41E0618183EA92E06D
:102140000E94DB0A83EA92E00E94C00A44C0DB01DD
:1021500013968C9180934B0200914B0210914C028C
:1021600020914D0230914E020F2EF3E6EF2EF02D0E
:1021700043E0618183EA92E00E94DB0A83EA92E015
:102180000E94C00A28C0DB0114968C9180934B02F8
:1021900000914B0210914C0220914D0230914E0261
:1021A0000F2EF3E6EF2EF02D42E0618183EA92E0FC
:1021B0000E94DB0A83EA92E00E94C00A0CC08EE40F
:1021C00093E00E94CE04EAEBF2E081E0808388EEA7
:1021D00093E0948383831F910F91EF900895EF9282
:1021E0000F931F93FC0192819230F1F018F491301B
:1021F00039F066C0913861F1923809F445C060C089
:102200008081843061F48381813021F4DB01139675
:102210008C9362C0811160C0FB0113825DC087E3B3
:1022200093E00E94CE0458C08081843061F48381A1
:10223000813021F4DB0112968C934EC081114CC089
:10224000FB01128249C080E293E00E94CE0444C0A8
:10225000DB0113968C9180934B0200914B021091FD
:102260004C0220914D0230914E020F2EF3E6EF2EDC
:10227000F02D41E0618183EA92E00E94DB0A83EA6B
:1022800092E00E94C00A28C0DB0112968C918093D4
:102290004B0200914B0210914C0220914D02309163
:1022A0004E020F2EF3E6EF2EF02D42E0618183EA1D
:1022B00092E00E94DB0A83EA92E00E94C00A0CC00E
:1022C00089E093E00E94CE04EAEBF2E081E08083B3
:1022D00088EE93E0948383831F910F91EF9008958C
:1022E000EF920F931F93CF93DF9300D000D0CDB721
:1022F000DEB7FC018B019281913871F118F49130B5
:1023000041F084C0923809F445C0933809F460C0A4
:102310007DC080818730D9F4DF0113969E012F5F45
:102320003F4FAF01495F5F4F9D91F90191939F012D
:10233000A417B507C9F7CE0101960E94AD0AD801CE
:1023400016966D937D938D939C9319976BC082EF36
:1023500092E00E94CE0466C0DB0116960D911D919D
:102360002D913C91199700934B0210934C022093AE
:102370004D0230934E020F2EF6E6EF2EF02D41E087
:10238000618183EA92E00E94DB0A83EA92E00E9484
:10239000C00A48C0DB018D919C9190934C028093C0
:1023A0004B0200914B0210914C0220914D02309152
:1023B0004E020F2EF9E6EF2EF02D42E0618183EA06
:1023C00092E00E94DB0A83EA92E00E94C00A2AC0DF
:1023D000DB0112960D911D912D913C911597009363
:1023E0004B0210934C0220934D0230934E020F2E5D
:1023F000F6E6EF2EF02D43E0618183EA92E00E9441
:10240000DB0A83EA92E00E94C00A0CC08BED92E0E6
:102410000E94CE04EAEBF2E081E0808388EE93E054
:10242000948383830F900F900F900F90DF91CF9143
:102430001F910F91EF900895DC0112968C918E3EC2
:1024400001F18F3F09F079C0E9E5F2E013821282D1
:102450001686158614861386EAEEF2E0138212823F
:10246000168615861486138610928D0210920C0320
:1024700010929F02109225031092E5021092BA0268
:10248000089582E2E9E5F2E0DF01982F1D929A9526
:10249000E9F7EAEEF2E0DF011D928A95E9F781E1C2
:1024A000EDE8F2E0DF01982F1D929A95E9F7ECE054
:1024B000F3E0DF011D928A95E9F785E0E5E2F3E0BC
:1024C000DF01982F1D929A95E9F7E5EEF2E0DF0122
:1024D000982F1D929A95E9F7EAEBF2E0DF01982F29
:1024E0001D929A95E9F7EEE9F2E0DF011D928A95D7
:1024F000E9F786E0E3E5F2E0DF01982F1D929A9577
:10250000E9F7EFEDF2E0DF01982F1D929A95E9F7D8
:10251000EBE7F2E0DF011D928A95E9F78CE0E1E854
:10252000F2E0DF01982F1D929A95E9F7EEEAF2E0CA
:10253000DF011D928A95E9F7089584EC92E00E94EC
:10254000CE04EAEBF2E081E0808388EE93E09483AE
:1025500083830895EF92FF920F931F93CF93DF939E
:102560007C01E5E2F3E081E0808388EE93E09483F0
:1025700083838FEE90E00197F1F700C000000E9486
:10258000770AD82FF7018083823008F0C6C01DC0BB
:102590008FEE90E00197F1F700C000000E94770AEB
:1025A000F80181938F01CA3069F48AE895E00E94AE
:1025B000CE04EAEBF2E081E0808388EE93E094833E
:1025C0008383BAC0CF5FCD13E3CFED2FF0E0319717
:1025D000EE0DFF1DC08110826FEF6D0FC7010E94CD
:1025E000580AF7019081915090838C1769F087E722
:1025F00095E00E94CE04EAEBF2E081E0808388EE71
:1026000093E09483838398C0F70181818E3009F42D
:1026100049C070F4883071F128F48430F9F08530C5
:1026200019F16EC08C3091F1B8F5893049F168C06C
:10263000863109F44FC040F4843109F43FC008F0FA
:1026400043C08031A9F15CC0893109F44FC08F3F8C
:1026500009F452C0883109F053C042C069E572E004
:10266000C7010E94270B68C06AEE72E0C7010E9492
:10267000270B62C06DE872E0C7010E947E0D5CC04E
:102680006CE073E0C7010E947E0D56C065E273E006
:10269000C7010E94710F50C065EE72E0C7010E9431
:1026A000710F4AC06AEB72E0C7010E94710F44C00B
:1026B0006EE972E0C7010E9436103EC063E572E029
:1026C000C7010E94EF1038C06FED72E0C7010E9491
:1026D000EF1032C06BE772E0C7010E94EF102CC010
:1026E00061E872E0C7010E94701126C06EEA72E0D4
:1026F000C7010E94701120C0C7010E941C121CC09B
:102700008FE595E00E94CE04EAEBF2E081E0808361
:1027100088EE93E0948383830FC08FEE90E001975F
:10272000F1F700C000000E94770AF701818387015A
:102730000E5F1F4FC1E046CFDF91CF911F910F91E8
:10274000FF90EF900895CF93DF9300D000D000D09A
:10275000CDB7DEB70E94C4070E946A080E94140A1F
:102760000E94FB08EAEBF2E021E0208380E197E29F
:1027700094838383E5E2F3E020839483838386E07C
:1027800080938B02EAE7F0E08081806480830DEA29
:1027900012E00F2EF9E5EF2EF2E0FF2EF02D0F2EB6
:1027A000FAEECF2EF2E0DF2EF02D0F2EFDE88F2E69
:1027B000F2E09F2EF02D0F2EFCE02F2EF3E03F2EA7
:1027C000F02D0E94770A813109F0BAC283EA92E0C3
:1027D0000E94AA12B5C21192E017F107E1F7ABE42B
:1027E000B2E01D921D921D921C921397F701628117
:1027F0007381072E000C880B990B0E94CE1A20E0E3
:1028000030E040EF5EE30E947E1B0E94961AD701E3
:1028100018967C936E931797F60162817381072E49
:10282000000C880B990B0E94CE1A20E030E040EF9C
:102830005EE30E947E1B0E94961AD60118967C9336
:102840006E931797F7018385948599231CF49195CE
:10285000819591094FE852E0849F9001859F300D4A
:10286000949F300D1124AAE8B0E011963C932E936A
:10287000F7018185813011F4409A09C08F3F11F42E
:10288000409805C0AAE8B0E011961C921E92F6018D
:102890008385948599231CF49195819591094FE83E
:1028A00052E0849F9001859F300D949F300D11243C
:1028B000A8E8B0E011963C932E93F6018185813013
:1028C00011F4419809C08F3F11F4419A05C0A8E85E
:1028D000B0E011961C921E92F4018081882309F4C5
:1028E00056C0458056806780708481819281A38123
:1028F000B48184159505A605B70524F4418252825A
:1029000063827482D40119962D913D914D915C9111
:102910001C972B833C834D835E8311968D919D91F3
:102920000D90BC91A02D281739074A075B072CF49E
:10293000F4012183328343835483D4011D96AD90E7
:10294000BC901E9711968D919D910D90BC91A02DDC
:102950009C01AD012419350946095709F401A785E1
:10296000B089AA19BB090E94381C2B813C814D817A
:102970005E8124193509460957090E94131C2A0D46
:102980003B1DA8E9B0E011963C932E9301C05898E6
:10299000F1018081882309F456C045805680678004
:1029A000708481819281A381B48184159505A605E7
:1029B000B70524F44182528263827482D101199650
:1029C0002D913D914D915C911C972B833C834D83C0
:1029D0005E8311968D919D910D90BC91A02D28172D
:1029E00039074A075B072CF4F101218332834383C3
:1029F0005483D1011D96AD90BC901E9711968D9178
:102A00009D910D90BC91A02D9C01AD01241935091B
:102A100046095709F101A785B089AA19BB090E9487
:102A2000381C2B813C814D815E8124193509460972
:102A300057090E94131C2A0D3B1DA8EAB0E011960D
:102A40003C932E9301C0599880919F02882331F0C6
:102A50008EE992E00E94360A10929F02E5E2F3E0CE
:102A60008081181674F4809126039091270318161C
:102A700019061CF40E94480907C086E00E94350927
:102A800003C086E00E9421098091E502181674F4C3
:102A90008091E6029091E702181619061CF40E9434
:102AA000630907C085E00E94350903C085E00E94E4
:102AB00021098091BA02181674F48091BB0290919A
:102AC000BC02181619061CF40E947E0907C083E098
:102AD0000E94350903C083E00E94210980915402BD
:102AE000813049F5BB24B394A5E2B3E0BC9280EDFC
:102AF00097E0909329038093280388EB96E00E9447
:102B0000CE04F7011382128284EB90E096878587CA
:102B10002FEF2187D60113961C921E9212971E96B4
:102B20009C938E931D971996BC92809156028111A9
:102B300002C0109254028091E002813021F5E5EE4E
:102B4000F2E0808380ED97E094838383F701138222
:102B50001282838594850A96948783878FEF818775
:102B6000D60113961C921E9212972CE43FEF1E96EC
:102B70003C932E931D9719968C938091E2028111BC
:102B800002C01092E00280917C02813029F5EAEBCC
:102B9000F2E021E0208380ED97E094838383F701C6
:102BA00013821282838594850A979487838721876D
:102BB000D60113961C921E9212978CE49FEF1E96DC
:102BC0009C938E931D978FEF19968C9380917E0224
:102BD000811102C010927C0280918C028823C9F17D
:102BE00080917A0086FD35C06091780070917900FF
:102BF0000F2EF1E8AF2EF2E0BF2EF02DF50171831C
:102C00006083072E000C880B990B0E94CE1AD50109
:102C100016962D913D914D915C9119970E947E1BC6
:102C200020E030E04AE754E40E94241AF501628370
:102C30007383848395831386ECE7F0E08081816061
:102C4000808386E08093B802EAE7F0E080818064C8
:102C500080838091B9028823A1F180917A0086FD5A
:102C600030C060917800709179000F2EFEEAAF2E8F
:102C7000F2E0BF2EF02DD5016D937C93072E000C52
:102C8000880B990B0E94CE1AF50126813781408569
:102C900051850E947E1BD50112966D937D938D9375
:102CA0009C9315971B961C92ECE7F0E080818E7F39
:102CB000808386E080938B02EAE7F0E08081806485
:102CC000808320911D0330911E0340911F0350917A
:102CD000200360918302709184028091850290911B
:102CE00086020E941F1A882334F5EDE1F3E0848107
:102CF0009581268137818217930730F4019690934E
:102D00002203809321035DCDE4E6F0E080818866B4
:102D100080838FE189838DE18A8322E042E06091A4
:102D20009E02CE0101960E94EB098BE996E00E947B
:102D3000CE042D98FACF109222031092210341CD98
:102D4000E3EAF2E048CDA3E1B0E0E9EAF6E10C9471
:102D5000431C6C014B012A01FC01178216828381FE
:102D600081FF43C3AE014F5F5F4F3A01F60193818C
:102D7000F40193FD859193FF81914F01882309F41C
:102D800030C3853239F493FD859193FF81914F01D2
:102D9000853239F4B60190E00E94991D5201250157
:102DA000E5CF10E0F12C20E02032A0F48B3269F066
:102DB00030F4803259F0833269F420612CC08D32B6
:102DC00039F0803339F4216026C02260246023C0AA
:102DD000286021C027FD27C030ED380F3A3078F445
:102DE00026FF06C0FAE01F9F300D1124132F13C0D9
:102DF0004AE0F49E300D1124F32E20620CC08E3276
:102E000021F426FDEEC2206406C08C3611F4206841
:102E100002C0883641F4F40193FD859193FF8191BE
:102E20004F018111C1CF9BEB980F933018F42061B3
:102E3000805E06C09BE9980F933008F071C12F7E29
:102E400026FF16E02F73322E853619F42064322EB9
:102E500008C0863621F4F22FF0683F2E02C011110F
:102E6000115037FE07C01C3350F4EE24E394E10EFA
:102E700027E00BC0183038F027E017E005C027E046
:102E80004CE3E42E02C0212FE12C520144E0A40EB9
:102E9000B11CF20160817181828193810E2DA301A9
:102EA0000E94AB1C2C01098100FF02C003FF07C078
:102EB00031FC08C032FE09C030E2232E07C02DE2EB
:102EC000222E04C09BE2292E01C0212C802F8C7061
:102ED00019F0211068C2A8C237FE0FC0E40C04FF2D
:102EE00004C08A81813309F4EA941E1474F5F8E071
:102EF000FE1578F588E0E82E2CC036FC2AC0812F1C
:102F000090E0841595059CF02CEF42162FEF5206A9
:102F100074F0432D4068342E0AC0E2E0F0E0EC0F7C
:102F2000FD1FE10FF11D8081803319F41150111143
:102F3000F4CF37FE0EC0EE24E394E10E812F90E033
:102F4000481659062CF4141904C0EE24E39401C069
:102F500010E037FE06C01414150434F4C2010196C3
:102F600005C085E090E002C081E090E0211001966C
:102F7000112331F0212F30E02F5F3F4F820F931F3D
:102F80002F2D30E08217930714F4F81A01C0F12CAA
:102F9000832D897049F4FF2039F0B60180E290E07A
:102FA0000E94991DFA94F7CF222029F0B601822DB4
:102FB00090E00E94991D33FC09C0FF2039F0B60152
:102FC00080E390E00E94991DFA94F7CF37FE5AC033
:102FD000942D852D57FE02C090E080E0292E382EDA
:102FE00020E030E0A2014E1951095D874C87A20113
:102FF000421953095F874E87612F70E04427552798
:10300000461B570B598B488B5FEF2516350649F445
:10301000B6018EE290E02A8B3B8B0E94991D3B8982
:103020002A89421453046CF04C855D854215530582
:1030300044F4EE85FF85E20FF31FE60DF71D818155
:1030400001C080E351E0251A31082F5F3F4F4889C6
:103050005989241635064CF0B60190E02A8B3B8B3B
:103060000E94991D2A893B89CFCF2414350439F455
:103070009A81963318F4953311F404FF81E3B60175
:1030800090E04BC08A81813309F00F7EB60190E059
:103090000E94991D111105C034FC18C085E690E00E
:1030A00017C0B6018EE290E00E94991D82E0EE24E6
:1030B000E394E80EF301E80FF11D8081B60190E082
:1030C0000E94991D11508E2D91F7E6CF85E490E076
:1030D000B6010E94991D57FC05C04114510439F4F2
:1030E00004FF05C05194419451088DE201C08BE268
:1030F000B60190E00E94991D80E39AE049165104C0
:103100002CF08F5F5AE0451A5108F7CFB60190E0D6
:103110000E94991DB601C201C0960E94991D57C117
:10312000833631F0833779F0833509F058C021C0F8
:103130005201E2E0AE0EB11CF2018081898301E010
:1031400010E0230114C05201F2E0AF0EB11CF201F5
:103150004080518026FF03C0612F70E002C06FEFF6
:103160007FEFC2012A8B0E948E1D8C012A892F7746
:1031700015C05201F2E0AF0EB11CF2014080518047
:1031800026FF03C0612F70E002C06FEF7FEFC20126
:103190002A8B0E94831D8C012A892068322E23FDF0
:1031A0001AC08F2D90E008171907A8F4B60180E225
:1031B00090E00E94991DFA94F4CFF20137FC8591BA
:1031C00037FE81912F01B60190E00E94991DF11008
:1031D000FA94015011090115110579F7F8C08436E8
:1031E00011F0893659F5520127FF09C0F4E0AF0EFE
:1031F000B11CF20160817181828193810AC0F2E089
:10320000AF0EB11CF20160817181072E000C880B9A
:10321000990B2F76322E97FF09C090958095709567
:1032200061957F4F8F4F9F4F2068322E2AE030E00C
:10323000A3010E94D11DE82EE6183FC0022F85375A
:1032400021F40F7E2AE030E01DC0097F8F3691F017
:1032500018F4883559F0C5C0803719F0883711F057
:10326000C0C0006104FF09C0046007C024FF08C09B
:10327000066006C028E030E005C020E130E002C072
:1032800020E132E0520107FF09C0F4E0AF0EB11CAB
:10329000F201608171818281938108C0F2E0AF0EFA
:1032A000B11CF2016081718180E090E0A3010E9475
:1032B000D11DE82EE6180F77302E36FE0BC0332DC9
:1032C0003E7FE11650F434FE0AC032FC08C0332DB4
:1032D0003E7E05C00E2D332D03C00E2D01C0012FE3
:1032E00034FF0CC0FE01EE0DF11D8081803311F41E
:1032F000397E08C032FF05C00E5F04C0832F867878
:1033000009F00F5F33FD13C030FF06C01E2D0F15EF
:1033100018F41F0D101B0F2D0F1568F4B60180E275
:1033200090E03B8B0E94991D0F5F3B89F5CF0F15F5
:1033300010F4F01A01C0F12C34FF12C0B60180E382
:1033400090E03B8B0E94991D3B8932FF17C031FDF5
:1033500003C088E790E002C088E590E0B6010CC0A9
:10336000832F867859F031FF02C08BE201C080E2E2
:1033700037FD8DE2B60190E00E94991DE11638F408
:10338000B60180E390E00E94991D1150F7CFEA94B6
:10339000F301EE0DF11D8081B60190E00E94991DB0
:1033A000E110F5CF14C0F4E0FF1558F584E0F81AE9
:1033B00033FE1EC0211026C003FF2AC002EC11E01C
:1033C000F32DF0713F2EF8018491811124C0FF206C
:1033D00009F4E5CCB60180E290E00E94991DFA94D0
:1033E000F6CFF6018681978126C08FEF9FEF23C02D
:1033F000B60180E290E00E94991DFA94F110F8CF96
:10340000D9CFF12CB601822D90E00E94991DD4CF26
:1034100006EC11E0D5CF31108052B60190E00E9449
:10342000991D0F5F1F4FCFCF23E02F1510F483E0BE
:10343000BECFF12CC1CF6396E2E10C945F1C0E94D9
:10344000091B08F481E008950E94381A0C94441B6B
:103450000E943D1B58F00E94361B40F029F45F3F4C
:1034600029F00C942D1B51110C94781B0C94331BD8
:103470000E94551B68F39923B1F3552391F3951BD3
:10348000550BBB27AA2762177307840738F09F5F85
:103490005F4F220F331F441FAA1FA9F335D00E2EF2
:1034A0003AF0E0E832D091505040E695001CCAF75F
:1034B0002BD0FE2F29D0660F771F881FBB1F261722
:1034C00037074807AB07B0E809F0BB0B802DBF01F9
:1034D000FF2793585F4F3AF09E3F510578F00C94C8
:1034E0002D1B0C94781B5F3FE4F3983ED4F3869534
:1034F00077956795B795F7959F5FC9F7880F911DE9
:103500009695879597F90895E1E0660F771F881FD4
:10351000BB1F621773078407BA0720F0621B730B87
:10352000840BBA0BEE1F88F7E09508950E949D1A50
:103530006894B1110C94781B08950E945D1B88F06B
:103540009F5798F0B92F9927B751B0F0E1F0660F67
:10355000771F881F991F1AF0BA95C9F714C0B130A8
:1035600091F00E94771BB1E008950C94771B672FB0
:10357000782F8827B85F39F0B93FCCF386957795D7
:103580006795B395D9F73EF49095809570956195C0
:103590007F4F8F4F9F4F0895E89409C097FB3EF4EB
:1035A00090958095709561957F4F8F4F9F4F992390
:1035B000A9F0F92F96E9BB279395F695879577950E
:1035C0006795B795F111F8CFFAF4BB0F11F460FFCE
:1035D0001BC06F5F7F4F8F4F9F4F16C0882311F026
:1035E00096E911C0772321F09EE8872F762F05C03A
:1035F000662371F096E8862F70E060E02AF09A95D5
:10360000660F771F881FDAF7880F9695879597F9C9
:103610000895990F0008550FAA0BE0E8FEEF161663
:103620001706E807F907C0F012161306E407F507B6
:1036300098F0621B730B840B950B39F40A2661F02A
:10364000232B242B252B21F408950A2609F4A140CD
:10365000A6958FEF811D811D089597F99F6780E8DA
:1036600070E060E008959FEF80EC089500240A94D4
:103670001616170618060906089500240A9412164D
:103680001306140605060895092E0394000C11F480
:10369000882352F0BB0F40F4BF2B11F460FF04C02D
:1036A0006F5F7F4F8F4F9F4F089557FD9058440F86
:1036B000551F59F05F3F71F04795880F97FB991F91
:1036C00061F09F3F79F0879508951216130614064E
:1036D000551FF2CF4695F1DF08C0161617061806DB
:1036E000991FF1CF86957105610508940895E894B6
:1036F000BB2766277727CB0197F908950E94911B76
:103700000C94441B0E94361B38F00E943D1B20F095
:10371000952311F00C942D1B0C94331B11240C9445
:10372000781B0E94551B70F3959FC1F3950F50E0D5
:10373000551F629FF001729FBB27F00DB11D639F63
:10374000AA27F00DB11DAA1F649F6627B00DA11D09
:10375000661F829F2227B00DA11D621F739FB00DAF
:10376000A11D621F839FA00D611D221F749F33271F
:10377000A00D611D231F849F600D211D822F762FB8
:103780006A2F11249F5750409AF0F1F088234AF095
:10379000EE0FFF1FBB1F661F771F881F9150504001
:1037A000A9F79E3F510580F00C942D1B0C94781BBB
:1037B0005F3FE4F3983ED4F3869577956795B79588
:1037C000F795E7959F5FC1F7FE2B880F911D9695A2
:1037D000879597F90895AA1BBB1B51E107C0AA1F43
:1037E000BB1FA617B70710F0A61BB70B881F991FA2
:1037F0005A95A9F780959095BC01CD01089597FB46
:10380000072E16F4009407D077FD09D00E94EB1B19
:1038100007FC05D03EF4909581959F4F08957095D3
:1038200061957F4F0895052E97FB1EF400940E942A
:103830002A1C57FD07D00E947A1C07FC03D04EF4C7
:103840000C942A1C50954095309521953F4F4F4F31
:103850005F4F089590958095709561957F4F8F4F3C
:103860009F4F0895EE0FFF1F0590F491E02D0994EE
:103870000E949C1CA59F900DB49F900DA49F800D4D
:10388000911D112408952F923F924F925F926F9253
:103890007F928F929F92AF92BF92CF92DF92EF92E0
:1038A000FF920F931F93CF93DF93CDB7DEB7CA1B61
:1038B000DB0B0FB6F894DEBF0FBECDBF09942A888C
:1038C000398848885F846E847D848C849B84AA8434
:1038D000B984C884DF80EE80FD800C811B81AA81C1
:1038E000B981CE0FD11D0FB6F894DEBF0FBECDBF8C
:1038F000ED010895A1E21A2EAA1BBB1BFD010DC00C
:10390000AA1FBB1FEE1FFF1FA217B307E407F5078F
:1039100020F0A21BB30BE40BF50B661F771F881F6B
:10392000991F1A9469F760957095809590959B0101
:10393000AC01BD01CF010895A29FB001B39FC001AA
:10394000A39F700D811D1124911DB29F700D811DCB
:103950001124911D0895283008F027E03327DA015B
:10396000990F311D87FD916000966105710539F44D
:1039700032602E5F3D9330E32A95E1F708959F3F33
:1039800030F080387105610509F03C5F3C5F3D9384
:10399000913008F08068911DDF93CF931F930F93B0
:1039A000FF92EF92192F987F9695E92F969596950D
:1039B000E90FFF27EC5DFD4F99273327EE24FF2405
:1039C000A701E70105900894079428F4360FE71E35
:1039D000F81E491F511D660F771F881F991F0694F7
:1039E000A1F70590079428F4E70EF81E491F561F0B
:1039F000C11D770F881F991F661F0694A1F70590B8
:103A0000079428F4F80E491F561FC71FD11D880FB1
:103A1000991F661F771F0694A1F70590079420F45D
:103A2000490F561FC71FD81F990F661F771F881F82
:103A30000694A9F784911095177041F0D695C79513
:103A400057954795F794E7941A95C1F7EAECF1E09A
:103A500068941590159135916591959105907FE247
:103A60007395E118F10A430B560BC90BD009C0F747
:103A7000E10CF11E431F561FC91FD01D7EF4703389
:103A800011F48A95E6CFE894015030F0080F0AF45B
:103A90000027021708F4202F2395022F7A3328F0ED
:103AA00079E37D932A95E9F710C07D932A9589F6ED
:103AB000069497956795379517951794E118F10A2D
:103AC000430B560BC90BD00998F023957E91739543
:103AD0007A3308F070E37C932013B8F77E9170611D
:103AE0007D9330F0839571E37D9370E32A95E1F740
:103AF0001124EF90FF900F911F91CF91DF919927A3
:103B000087FD90950895FC0105906150704001106B
:103B1000D8F7809590958E0F9F1F0895FC016150F6
:103B2000704001900110D8F7809590958E0F9F1FDF
:103B300008950F931F93CF93DF93FB01238121FD02
:103B400003C08FEF9FEF28C022FF16C04681578128
:103B5000248135814217530744F4A081B1819D012E
:103B60002F5F3F4F318320838C93268137812F5FD6
:103B70003F4F3783268310C0EB01092F182F008495
:103B8000F185E02D0995892BE1F68E819F810196C3
:103B90009F838E83812F902FDF91CF911F910F9163
:103BA0000895FA01AA27283051F1203181F1E894D3
:103BB0006F936E7F6E5F7F4F8F4F9F4FAF4FB1E020
:103BC0003ED0B4E03CD0670F781F891F9A1FA11D1B
:103BD000680F791F8A1F911DA11D6A0F711D811D1C
:103BE000911DA11D20D009F468943F912AE0269FE1
:103BF00011243019305D3193DEF6CF010895462F40
:103C00004770405D4193B3E00FD0C9F7F6CF462F20
:103C10004F70405D4A3318F0495D31FD4052419389
:103C200002D0A9F7EACFB4E0A69597958795779546
:103C30006795BA95C9F700976105710508959B01CD
:103C4000AC010A2E06945795479537952795BA9556
:103C5000C9F7620F731F841F951FA01D0895F89464
:023C6000FFCF94
:103C620077605B7A6C3E3F707F7E7D2F176B1F1DE6
:103C7200B790ADBC9A3E3FB0BFBEBB1F279D2F2B56
:103C820000FF0102010002FFFF0200010201FF002A
:103C92000001FF02FF000201010200FF02FF01001A
:00000001FF
